:0400000007EF00F016
:10000800608268ED12F0FBEF16F0C60E0101066F74
:10001800000E076FA0EF05F0250E1E19D8B40BD0FF
:10002800C2C0D9FFC3C0DAFF1EC1DFFF0001C24B47
:10003800C32BA0EF05F0000E0101176F000E166F1D
:10004800000E0B6F000E0A6FC4C0F6FFC5C0F7FFA5
:100058000800F55035EC18F0D8A038D0000E010192
:10006800176F000E166F16C11FF017C120F0000E93
:10007800226E0A0E216EEFEC17F01FC016F120C099
:1000880017F1D00E0001CA6FFF0ECB6FC4C0F6FF88
:10009800C5C0F7FF0800F550CC6FCD6BCA51CC270F
:1000A800CB51CD23CC51010116270001CD510101BF
:1000B80017230001C44BC52BC4C0F6FFC5C0F7FF0A
:1000C8000800F55035EC18F0D8B0CDD7C4C0F6FF0D
:1000D800C5C0F7FF0800F5502E0AD8A433D0010197
:1000E8000B8D0001C44BC52B000E01011D6F000EC6
:1000F8001C6F1DD01CC11FF01DC120F0000E226E08
:100108000A0E216EEFEC17F0C4C0F6FFC5C0F7FF6A
:100118000800F5501F26000E2022D00E1F240101D2
:100128001C6FFF0E20201D6F0001C44BC52BC4C0DF
:10013800F6FFC5C0F7FF0800F55035EC18F0D8A059
:100148005ED0D8D7000E01011D6F000E1C6F0B8901
:1001580056D00B856DD01C511D11D8B40AD008514A
:100168001C5D09511D59D8B004D01CC108F11DC12E
:1001780009F11651085D17510959D8B005D0085131
:10018800165F0951175B0ED0000E176F000E166F21
:1001980009D0C2C0D9FFC3C0DAFF200EDF6E00014C
:1001A800C24BC32B01011607D8A017071629F1E186
:1001B8001729D8B410D0EDD704C1D9FF05C1DAFF8B
:1001C800C2C0E1FFC3C0E2FFDFCFE7FF044B052B4E
:1001D8000001C24BC32B01010807D8A00907082951
:1001E800EBE10929D8B4A0EF05F0E6D71E0E046F9D
:1001F800010E056F000E096F010E086FACD7C4C061
:10020800F6FFC5C0F7FF0001C44BC52B0800F5CFAA
:100218001EF101011E51000AD8B4AFEF05F0640ABF
:10022800D8B406D0020AD8B494D70F0AD8A4DED717
:10023800070E0B15D8B44FD30BA904D0000E1D6FB1
:10024800060E1C6F06C1D9FF07C1DAFFDECF18F111
:10025800DECF19F1DECF1AF1DECF1BF1040E06272F
:10026800000E07231BAF15D018C133F019C134F0A5
:100278001AC135F01BC136F0C1EC17F033C018F1C4
:1002880034C019F135C01AF136C01BF1030E010153
:100298000A13000E156F000E146F185119111A1158
:1002A8001B11D8B486D01A351B35820F146F156B05
:1002B800FF0E15231407D8A0150714C11FF015C188
:1002C80020F0000E226E030E216EEFEC17F01FC017
:1002D80014F120C015F114C125F015C126F0000E47
:1002E800286E0A0E276E22EC15F025C014F126C0E0
:1002F80015F1010115AF03D01407D8A01507145143
:100308000008B6EC05F095C00CF196C00DF197C049
:100318000EF198C00FF10CC180F00DC181F00EC133
:1003280082F00FC183F018C184F019C185F01AC199
:1003380086F01BC187F0AAEC09F080C00CF181C0DF
:100348000DF182C00EF183C00FF10CC1B6F00DC1E2
:10035800B7F00EC1B8F00FC1B9F0000E0001BA6FC6
:10036800000EBB6F800EBC6F3F0EBD6FFAEC12F033
:100378000001D8B005D001011407D8A0150719D07D
:100388000CC1B6F00DC1B7F00EC1B8F00FC1B9F08D
:10039800000E0001BA6F000EBB6F200EBC6F410E3D
:1003A800BD6FFAEC12F00001D8A003D00101144B84
:1003B800152B01011DBF06D01D5121E10D0E1C5D3D
:1003C800D8B01DD018C1A2F019C1A3F01AC1A4F069
:1003D8001BC1A5F01C514CEC0EF095C0A6F096C0C0
:1003E800A7F097C0A8F098C0A9F053EC0BF0A2C0F2
:1003F80018F1A3C019F1A4C01AF1A5C01BF101019D
:1004080015BF06D0155124E10A0E145DD8B020D0CE
:10041800185119111A111B11D8B467D018C19EF0C0
:1004280019C19FF01AC1A0F01BC1A1F002EC14F091
:1004380000019E519F11A011A111D8A456D001010D
:1004480015BF53D0155104E1020E145DD8A04DD04C
:100458000CC1B6F00DC1B7F00EC1B8F00FC1B9F0BC
:100468005F0E0001BA6F700EBB6F890EBC6F400E35
:10047800BD6FFAEC12F00001D8B003D00101F70EFD
:1004880002D00101F80E1427FF0E15231451B6EC03
:1004980005F095C00CF196C00DF197C00EF198C00B
:1004A8000FF118C11FF019C120F01AC121F01BC1AA
:1004B80022F00CC123F00DC124F00EC125F00FC1AC
:1004C80026F0D4EC11F01FC010F120C011F121C0AA
:1004D80012F122C013F1000E0101186F000E196FFE
:1004E800000E1A6F000E1B6F3CD018C19EF019C188
:1004F8009FF01AC1A0F01BC1A1F002EC14F09EC03D
:1005080010F19FC011F1A0C012F1A1C013F118C1E0
:10051800B6F019C1B7F01AC1B8F01BC1B9F010C1D3
:1005280025F011C126F012C127F013C128F0000EE2
:1005380093EC10F025C0BAF026C0BBF027C0BCF081
:1005480028C0BDF024EC17F0B6C018F1B7C019F1F7
:10055800B8C01AF1B9C01BF1000E0101156F000EE9
:10056800146F010E1E6F0A0E1E19D8B418D01E5132
:10057800040D530EF324F66EFF0EF420F76E0900F7
:10058800F550105D0900F55011590900F550125940
:100598000900F5501359D8A002D01E2BE4D71EC16C
:1005A800CAF00001CB6BCABFCB0701011C51000187
:1005B800CA2701011D510001CB230101145100017B
:1005C800CA27010115510001CB23CA510101165F49
:1005D8000001CB510101175B1C511D11D8B403D088
:1005E8001607D8A01707030E0A150001CA6F000ED8
:1005F80001010B150001CB6FCA51CB11D8B40ED035
:1006080009D0C2C0D9FFC3C0DAFF200EDF6E0001D7
:10061800C24BC32B01011607D8A01707010117BF4A
:1006280005D01751EEE11605D8B0EBD7030E0A1521
:100638000001CA6F000E01010B150001CB6FCA51F2
:10064800CB11D8B453D0C2C0D9FFC3C0DAFF2D0E26
:10065800DF6E4AD010C11FF011C120F012C121F085
:1006680013C122F001011E51040D530EF324F66E3E
:10067800FF0EF420F76E0900F5CF23F00900F5CF3F
:1006880024F00900F5CF25F00A00F5CF26F064EC38
:1006980015F01FC00CF120C00DF121C00EF122C0D1
:1006A8000FF10CC12CF00DC12DF00EC12EF00FC1B1
:1006B8002FF00A0E306E000E316E000E326E000EF4
:1006C800336E15EC16F02CC00CF12DC00DF12EC0B8
:1006D8000EF12FC00FF101010C51300FC2C0D9FF2C
:1006E800C3C0DAFFDF6E0001C24BC32B01011E0736
:1006F8001E29D8B40ED0AED7C2C0D9FFC3C0DAFF06
:10070800300EDF6E0001C24BC32B01011407D8A0C5
:10071800150715BF05D01551EFE11405D8B0ECD772
:100728001DBF09D01D5104E1090E1C5DD8A003D0DE
:10073800080E1E6F02D01CC11EF11E511C5F000E58
:100748001EBFFF0E1D5B1E51D8B409D0C2C0D9FF11
:10075800C3C0DAFF2E0EDF6E0001C24BC32B0101AE
:100768001E51B6EC05F095C000F196C001F197C096
:1007780002F198C003F118C184F019C185F01AC1BB
:1007880086F01BC187F000C180F001C181F002C171
:1007980082F003C183F0AAEC09F080C09EF081C00A
:1007A8009FF082C0A0F083C0A1F002EC14F09EC0BC
:1007B80010F19FC011F1A0C012F1A1C013F173D0C4
:1007C80010C11FF011C120F012C121F013C122F095
:1007D80001011E51040D530EF324F66EFF0EF42092
:1007E800F76E0900F5CF23F00900F5CF24F00900D2
:1007F800F5CF25F00A00F5CF26F064EC15F01FC000
:100808000CF120C00DF121C00EF122C00FF10CC176
:100818002CF00DC12DF00EC12EF00FC12FF00A0ED5
:10082800306E000E316E000E326E000E336E15EC17
:1008380016F02CC00CF12DC00DF12EC00EF12FC0FA
:100848000FF101010C51300FC2C0D9FFC3C0DAFF4C
:10085800DF6E0001C24BC32B10C12CF011C12DF06B
:1008680012C12EF013C12FF001011E51040D530EB9
:10087800F324F66EFF0EF420F76E0900F5CF30F082
:100888000900F5CF31F00900F5CF32F00A00F5CFB5
:1008980033F015EC16F02CC010F12DC011F12EC05C
:1008A80012F12FC013F101011E071E29D8B40ED072
:1008B80087D7C2C0D9FFC3C0DAFF300EDF6E000190
:1008C800C24BC32B01011C07D8A01D071C511D11C9
:1008D800D8B432D1EED706C1D9FF07C1DAFFDECFCF
:1008E80010F1DDCF11F1000E11BFFF0E126F136F63
:1008F800020E0627000E072313AF0AD0030E0A13B1
:10090800131F121F111F106D000E11231223132322
:100918001C511D11D8A408D0105111111211131116
:10092800D8A402D01C4B1D2B010E1E6F0A0E1E19D7
:10093800D8B418D01E51040D530EF324F66EFF0ED2
:10094800F420F76E0900F550105D0900F5501159B3
:100958000900F55012590900F5501359D8A002D0D2
:100968001E2BE4D7800E1EBF7F0E0001CA6F010147
:100978001C511E5D1D51800A0001CA59D8B003D010
:100988001CC11EF115D001011D51800A0001CA6F5A
:1009980001011E511C5D800E1EBF7F0E0001CA5949
:1009A800D8B006D001011E511C6F1D6B1CBF1D075E
:1009B800010116511711D8B411D0030E0A15000100
:1009C800CA6F000E01010B150001CB6FCA51CB1184
:1009D800D8B404D001011607D8A0170701010BAD40
:1009E80018D016511C5D1D51800A0001CA6F010103
:1009F8001751800A0001CA59D8B006D001011C510C
:100A0800165F1D51175B05D0000E0101176F000E10
:100A1800166F800E1EBF7F0E0001CA6F01011651AE
:100A28001E5D1751800A0001CA59D8B008D00101CB
:100A38001E51165F000E1EBFFF0E175B05D0000E7D
:100A48000101176F000E166F16511711D8B411D087
:100A5800C2C0D9FFC3C0DAFF200EDF6E0001C24B4F
:100A6800C32B01011607D8A0170716511711D8A4D0
:100A7800EFD7030E0A150001CA6F000E01010B150E
:100A88000001CB6FCA51CB11D8B44DD0C2C0D9FF29
:100A9800C3C0DAFF2D0EDF6E44D01CC1CAF01DC1E1
:100AA800CBF00001D890CA37CB37D890CA37CB37AC
:100AB800530ECA25F66EFF0ECB21F76E0900F5CF4F
:100AC80023F00900F5CF24F00900F5CF25F00A003E
:100AD800F5CF26F010C11FF011C120F012C121F08E
:100AE80013C122F064EC15F01FC02CF020C02DF0CB
:100AF80021C02EF022C02FF00A0E306E000E316E8B
:100B0800000E326E000E336E15EC16F02C50300FBE
:100B180001011E6FC2C0D9FFC3C0DAFF1EC1DFFFCB
:100B28000001C24BC32B01011C07D8A01D071C29BB
:100B3800B4E11D29D8A4B1D7C4C0F6FFC5C0F7FFDA
:100B48000001C44BC52B0800F5CF1EF101011E5151
:100B5800D8A410EF00F0C2C0D9FFC3C0DAFF000E5E
:100B6800DF6E120000019D6F00019DAF12D19D6DD7
:100B78009D51800A120FD8A09AD0000E286E0A0E36
:100B8800276E000E226E640E216E9D511F6E206A24
:100B98001FBE2006A5EC15F01FC025F020C026F0CA
:100BA80022EC15F0D89025362636D89025362636EC
:100BB800240E2526000E26221F0E2524F66EFF0E73
:100BC8002620F76E0900F5CF84F00900F5CF85F0EF
:100BD8000900F5CF86F00A00F5CF87F0000E286EE1
:100BE800640E276E00019D51256E266A25BE2606D5
:100BF80022EC15F0D89025362636D890253626369C
:100C0800480E2526000E26221F0E2524F66EFF0EFE
:100C18002620F76E0900F5CF80F00900F5CF81F0A6
:100C28000900F5CF82F00A00F5CF83F0AAEC09F0AD
:100C380080C099F081C09AF082C09BF083C09CF07C
:100C480099C080F09AC081F09BC082F09CC083F06C
:100C5800000E226E0A0E216E00019D511F6E206A41
:100C68001FBE2006A5EC15F0D8901F362036D89068
:100C78001F3620361F0E1F24F66EFF0E2020F76E3B
:100C88000900F5CF84F00900F5CF85F00900F5CF0C
:100C980086F00A00F5CF87F0AAEC09F080C095F03D
:100CA80081C096F082C097F083C098F012000001CE
:100CB8009D51800A750FD8A056D0000E286E0A0ED6
:100CC800276E9D51256E266A25BE260622EC15F054
:100CD800D89025362636D89025362636240E252651
:100CE800000E26221F0E2524F66EFF0E2620F76E14
:100CF8000900F5CF80F00900F5CF81F00900F5CFA4
:100D080082F00A00F5CF83F0000E226E0A0E216EE3
:100D180000019D511F6E206A1FBE2006A5EC15F02C
:100D2800D8901F362036D8901F3620361F0E1F2425
:100D3800F66EFF0E2020F76E0900F5CF84F009004B
:100D4800F5CF85F00900F5CF86F00A00F5CF87F0DA
:100D5800AAEC09F080C095F081C096F082C097F0A7
:100D680083C098F0120000019D51040D1F0EF3245A
:100D7800F66EFF0EF420F76E0900F5CF95F0090026
:100D8800F5CF96F00900F5CF97F00A00F5CF98F067
:100D980012009D51800A120FD8A09AD0000E286E1A
:100DA8000A0E276E000E226E640E216E9D511F6E74
:100DB800206A1FBE2006A5EC15F01FC025F020C034
:100DC80026F022EC15F0D89025362636D890253610
:100DD8002636240E2526000E2622EB0E2524F66E36
:100DE800FE0E2620F76E0900F5CF84F00900F5CF36
:100DF80085F00900F5CF86F00A00F5CF87F0000EE0
:100E0800286E640E276E00019D51256E266A25BE48
:100E1800260622EC15F0D89025362636D8902536A9
:100E28002636480E2526000E2622EB0E2524F66EC1
:100E3800FE0E2620F76E0900F5CF80F00900F5CFE9
:100E480081F00900F5CF82F00A00F5CF83F0AAEC13
:100E580009F080C099F081C09AF082C09BF083C0ED
:100E68009CF099C080F09AC081F09BC082F09CC031
:100E780083F0000E226E0A0E216E00019D511F6E36
:100E8800206A1FBE2006A5EC15F0D8901F36203624
:100E9800D8901F362036EB0E1F24F66EFE0E20204B
:100EA800F76E0900F5CF84F00900F5CF85F0090049
:100EB800F5CF86F00A00F5CF87F0AAEC09F080C0DC
:100EC80095F081C096F082C097F083C098F0120028
:100ED80000019D51800A750FD8A056D0000E286ECB
:100EE8000A0E276E9D51256E266A25BE260622EC1F
:100EF80015F0D89025362636D89025362636240E75
:100F08002526000E2622EB0E2524F66EFE0E262040
:100F1800F76E0900F5CF80F00900F5CF81F00900E0
:100F2800F5CF82F00A00F5CF83F0000E226E0A0E8C
:100F3800216E00019D511F6E206A1FBE2006A5EC80
:100F480015F0D8901F362036D8901F362036EB0E75
:100F58001F24F66EFE0E2020F76E0900F5CF84F0F0
:100F68000900F5CF85F00900F5CF86F00A00F5CF26
:100F780087F0AAEC09F080C095F081C096F082C095
:100F880097F083C098F0120000019D51040DEB0EFC
:100F9800F324F66EFE0EF420F76E0900F5CF95F0F7
:100FA8000900F5CF96F00900F5CF97F00A00F5CFC4
:100FB80098F01200BDD181B61200000E206EFA0E14
:100FC8001F6E02EC18F081B61200000E206E000EA3
:100FD8001F6EAAEC17F08294829A000E0101C16F6D
:100FE800000EC26F000EC36F000EC46FA090A092D7
:100FF8001200000E376E000E386EA00E396E400ECD
:101008003A6ED7C033F0D8C034F0D9C035F0DAC062
:1010180036F0F2EC0CF033C080F034C081F035C00B
:1010280082F036C083F0000E0001846F000E856FD9
:10103800C80E866F420E876FAAEC09F080C0C1F116
:1010480081C0C2F182C0C3F183C0C4F1010E8DEC2E
:1010580017F01FC0E7F020C0E8F0E7C01FF0E8C0B5
:1010680020F0AAEC17F0829AA090A0921200000E2D
:10107800376E000E386EA00E396E400E3A6ED7C02D
:1010880033F0D8C034F0D9C035F0DAC036F0F2EC1D
:101098000CF033C080F034C081F035C082F036C027
:1010A80083F0000E0001846F000E856FC80E866FF6
:1010B800420E876FAAEC09F080C0C1F181C0C2F16D
:1010C80082C0C3F183C0C4F1010E8DEC17F01FC0BC
:1010D800E7F020C0E8F0E7C0C2F0E8C0C3F0060EB1
:1010E800D8900001C237C337E82EFAD7C2C025F01E
:1010F800C3C026F0000E26BEFF0E276E286E010E16
:1011080093EC10F025C050F026C051F027C052F0E3
:1011180028C053F0000E206E000E1F6EAAEC17F0C8
:101128008294A080A0821200DFC033F0E0C034F0C7
:10113800E1C035F0E2C036F0C1EC17F033C0A2F0E0
:1011480034C0A3F035C0A4F036C0A5F0E3C0A6F0C3
:10115800E4C0A7F0E5C0A8F0E6C0A9F053EC0BF096
:10116800A2C0C8F0A3C0C9F0A4C0CAF0A5C0CBF003
:10117800000E0001B66F000EB76F000EB86F000EBC
:10118800B96FC8C0BAF0C9C0BBF0CAC0BCF0CBC008
:10119800BDF0FAEC12F00001D8B076D0C8C080F0EB
:1011A800C9C081F0CAC082F0CBC083F0000E846F42
:1011B800000E856F200E866F410E876FAAEC09F02E
:1011C80080C0C4F081C0C5F082C0C6F083C0C7F03B
:1011D800C4C0B6F0C5C0B7F0C6C0B8F0C7C0B9F053
:1011E800000E0001BA6F000EBB6FC80EBC6F410E37
:1011F800BD6FFAEC12F00001D8B008D0000EC46F31
:10120800000EC56FC80EC66F410EC76F000E376E51
:10121800000E386EA00E396E400E3A6ED7C033F00D
:10122800D8C034F0D9C035F0DAC036F0F2EC0CF0A2
:1012380033C080F034C081F035C082F036C083F00E
:10124800000E0001846F000E856FC80E866F420E77
:10125800876FAAEC09F080C0C1F181C0C2F182C0D9
:10126800C3F183C0C4F1010E8DEC17F01FC0E7F085
:1012780020C0E8F0E7C01FF0E8C020F0AAEC17F0A3
:10128800829AA090A0921200E3C0B6F0E4C0B7F032
:10129800E5C0B8F0E6C0B9F0DFC0A6F0E0C0A7F03E
:1012A800E1C0A8F0E2C0A9F05B50256E266A276A63
:1012B800286A000E93EC10F025C033F026C034F0F5
:1012C80027C035F028C036F0C1EC17F033C0A2F0C3
:1012D80034C0A3F035C0A4F036C0A5F053EC0BF031
:1012E800A2C0BAF0A3C0BBF0A4C0BCF0A5C0BDF0BA
:1012F800FAEC12F00001D8B01200000E206E000EB9
:101308001F6EAAEC17F08294000E0101C16F000E47
:10131800C26F480EC36F420EC46F000E506E000EAF
:10132800516E000E526EC70E536EA080A08212003E
:101338005A50000AD8B43FD6010AD8B45AD6030A7C
:10134800D8B495D6010AD8A41200EED6000183516C
:10135800800B886F835183258E6F82BF8E818E515B
:10136800D8B40DD08E29D8A408D0000E806F000EF6
:10137800816F000E826F000E836F828F08D0000E7F
:10138800806F000E816F000E826F000E836F875191
:10139800800B881B87518725896F86BF8981895172
:1013A800D8B40DD08929D8A408D0000E846F000EB7
:1013B800856F000E866F000E876F868F08D0000E2F
:1013C800846F000E856F000E866F000E876F89513F
:1013D800D8B403D08E51D8A409D0000E806F000E67
:1013E800816F000E826F000E836F1200865180039A
:1013F800F3CF93F0F4CF94F093518A6F8B6B8C6B8F
:101408008D6B94518F6F906B916B926B85518103AB
:10141800F3CF93F0F4CF94F093518A27000E8B23E7
:101428008C238D2394518F27000E90239123922390
:1014380084518203F3CF93F0F4CF94F093518A2729
:10144800000E8B238C238D2394518F27000E90231D
:10145800912392238CC08DF08BC08CF08AC08BF0C6
:101468008A6B84518103F3CF93F0F4CF94F09351B6
:101478008A2794518B23000E8C23000E8D238551CF
:101488008003F3CF93F0F4CF94F093518A279451CB
:101498008B23000E8C23000E8D238CC08DF08BC007
:1014A8008CF08AC08BF08A6B84518003F3CF93F061
:1014B800F4CF94F093518A2794518B23000E8C23F8
:1014C800000E8D2386518103F3CF93F0F4CF94F06F
:1014D80093518F2794519023000E9123000E92234D
:1014E80085518203F3CF93F0F4CF94F093518F2773
:1014F80094519023000E9123000E9223865182036B
:10150800F3CF93F0F4CF94F093514C6E94514D6E09
:101518004E6A4F6A4EC04FF04DC04EF04CC04DF071
:101528004C6A4C508F274D5090234E5091234F506A
:1015380092238AC04CF08BC04DF08CC04EF08DC009
:101548004FF0190E05D0D8904F324E324D324C32F2
:10155800E82EF9D74C508F274D5090234E509123A9
:101568004F5092238CC08DF08BC08CF08AC08BF0CA
:101578008A6B89518EC04CF04D6A4C26000E4D2264
:10158800820E4C24936FFF0E4D20946F0FD0D8908D
:101598008F379037913792378DBF8F81D8908A37A0
:1015A8008B378C378D379307D8A0940791AFEFD737
:1015B800000E896F8DAF16D0FF0E8A154C6EFF0E88
:1015C8008B154D6EFF0E8C154E6E7F0E8D154F6E62
:1015D8004C504D104E104F10D8A402D08FA102D0FD
:1015E800010E896F8951D8B41FD0010E8F27000EC4
:1015F80090239123922392A117D08FC04CF090C0D2
:101608004DF091C04EF092C04FF04F344F324E32F1
:101618004D324C324CC08FF04DC090F04EC091F01E
:101628004FC092F0934B942B94BF0DD0945103E18B
:101638009329D8A008D0000E8F6F000E906F800EEF
:10164800916F7F0E20D094BF05D094510EE1930581
:10165800D8B00BD0000E8F6F000E906F000E916FF8
:10166800000E926F000E886F0FD093C08EF0FF0EA1
:101678008F17FF0E90177F0E9117000E92178EB1DD
:10168800918FD8908E31926F885192138FC080F0CD
:1016980090C081F091C082F092C083F012000001E6
:1016A800A551800BB26FA551A525B46FA4BFB48115
:1016B800B451D8B40DD0B429D8A408D0000EA26F64
:1016C800000EA36F000EA46F000EA56FA48F06D0A6
:1016D800000EA26F000EA36F000EA46F000EA56F80
:1016E800A951800BB36FB251B319D8A4B28DA951C7
:1016F800A925B36FA8BFB381B351D8B40DD0B3290E
:10170800D8A408D0000EA66F000EA76F000EA86F11
:10171800000EA96FA88F06D0000EA66F000EA76F47
:10172800000EA86F000EA96FB451B35DD8B022D0D7
:10173800B2AD02D0800EB21BB4C0B5F0B3C0B4F0E5
:10174800B5C0B3F0A2C0B5F0A6C0A2F0B5C0A6F06F
:10175800A3C0B5F0A7C0A3F0B5C0A7F0A4C0B5F06A
:10176800A8C0A4F0B5C0A8F0A5C0B5F0A9C0A5F060
:10177800B5C0A9F0000EB56FB451AA6FAB6BAA1F24
:10178800AB1FAA4BAB2BB351AC6FAD6BAA51AC27B7
:10179800AB51AD23ADBF2CD0AD5104E11A0EAC5DF9
:1017A800D8A026D0A251A311A411A511D8B402D053
:1017B800010E01D0000EB56F000EA26F000EA36FD0
:1017C800000EA46F000EA56FB3C0B4F015D0B5A17C
:1017D80005D0D890B5310109B56F02D0D890B5338E
:1017E800A2B1B58FA535A533A433A333A233B42B47
:1017F800B351B45DD8A0EBD7B2BD29D0B451D8A4A9
:1018080009D0000EA26F000EA36F000EA46F000E89
:10181800A56F1200A651A227A751A323A851A4235C
:10182800A951A523A5A183D0B5A106D0D890B533D9
:10183800B5510109B56F02D0D890B533A2B1B58FB3
:10184800A535A533A433A333A233B42B70D0A65146
:10185800A25DA751A359A851A459A551800AAA6FFE
:10186800A951800AAA59D8B036D0A2C0AAF0A3C0FC
:10187800ABF0A4C0ACF0A5C0ADF0AA1FAB1FAC1F65
:10188800AD1FAA2B000EAB23AC23AD23A651AA256E
:10189800AE6FA751AB21AF6FA851AC21B06FA95162
:1018A800AD21B16FFF0EAE25A26FFF0EAF21A36F62
:1018B800FF0EB021A46FFF0EB121A56F800EB21BE1
:1018C800B56DB551D8A40FD0010EA227000EA323E1
:1018D800A423A52308D0A651A25FA751A35BA851B2
:1018E800A45BA951A55BA251A311A411A511D8A469
:1018F8001CD0B551D8A419D0000EA26F000EA36F4A
:10190800000EA46F000EA56F1200D890A237A3375F
:10191800A437A537B5BFA281B5A102D0D88001D020
:10192800D890B537B451D8A4B407A4AFEED7000EF9
:10193800B36FB5AF0AD0B5C0AAF07F0EAA17D8A466
:1019480002D0A2A102D0010EB36FB351D8B420D0F7
:10195800010EA227000EA323A423A523A5A118D016
:10196800A2C0AAF0A3C0ABF0A4C0ACF0A5C0ADF073
:10197800AD35AD33AC33AB33AA33AAC0A2F0ABC09C
:10198800A3F0ACC0A4F0ADC0A5F0B429D8A4B42B82
:10199800B429D8B403D0B451D8A40DD0000EA26F86
:1019A800000EA36F000EA46F000EA56FB451D8A44B
:1019B80002D0000EB26FB4A102D0A48F01D0A49FB0
:1019C800D890B431A56FB2BFA58FA2C0A2F0A3C0B2
:1019D800A3F0A4C0A4F0A5C0A5F012003650800B57
:1019E8003F6E365036244A6E35BE4A804A50D8B4C7
:1019F8000DD04A28D8A408D0000E336E000E346EDD
:101A0800000E356E000E366E358E06D0000E336E23
:101A1800000E346E000E356E000E366E3A50800B96
:101A28003F1A3A503A244B6E39BE4B804B50D8B4CB
:101A38000DD04B28D8A408D0000E376E000E386E93
:101A4800000E396E000E3A6E398E06D0000E376ED3
:101A5800000E386E000E396E000E3A6E3750381090
:101A680039103A10D8A415D0000E336E000E346E1B
:101A7800000E356E000E366E800E35127F0E361251
:101A880033C033F034C034F035C035F036C036F0EA
:101A980012004A50D8A411D0000E336E000E346ED6
:101AA800000E356E000E366E33C033F034C034F09D
:101AB80035C035F036C036F012004B503B6E3C6AEC
:101AC8003B1E3C1E3B4A3C2A4A503D6E3E6A3B50F8
:101AD8003D263C503E227F0E3D24446E000E3E20A3
:101AE800456E33C040F034C041F035C042F036C0D6
:101AF80043F0000E336E000E346E000E356E000E8D
:101B0800366E000E466E000E476E000E486E000ED2
:101B1800496E000E4B6E28D04B50D8B411D0D890D7
:101B28004036413642364336D89033363436353629
:101B3800363649BE3380D890463647364836493619
:101B48003750405C38504158395042583A50435801
:101B5800D8A009D0498C3750405E3850415A395086
:101B6800425A3A50435A4B2A190E4B64D5D7405023
:101B7800411042104310D8B411D046800FD0D890ED
:101B8800333634363536363649BE3380D890463605
:101B98004736483649364406D8A0450635AEEFD70D
:101BA800000E4B6E49AE16D0FF0E46143B6EFF0E6C
:101BB80047143C6EFF0E48143D6E7F0E49143E6E6E
:101BC8003B503C103D103E10D8A402D033A002D0A8
:101BD800010E4B6E4B50D8B41FD0010E3326000EA9
:101BE80034223522362236A017D033C03BF034C019
:101BF8003CF035C03DF036C03EF03E343E323D321A
:101C08003C323B323BC033F03CC034F03DC035F091
:101C18003EC036F0444A452A45BE10D0455003E13F
:101C28004428D8A00BD0000E456E4468000E336ED1
:101C3800000E346E000E356E000E366E45BE05D0B1
:101C4800455011E14404D8B00ED0000E456E000E88
:101C5800446E000E336E000E346E000E356E000EAC
:101C6800366E000E3F6E44C04AF04AA002D0358E50
:101C780001D0359ED8904A30366E3F50361233C068
:101C880033F034C034F035C035F036C036F01200C9
:101C98000001A16F6D0E0001A165ADD0000E286E88
:101CA8000A0E276E000E226E640E216EA1C01FF070
:101CB800206AA5EC15F01FC025F020C026F022EC04
:101CC80015F0D89025362636D89025362636240E97
:101CD8002526000E26221F0E2524F66EFF0E26202E
:101CE800F76E0900F5CF84F00900F5CF85F00900FB
:101CF800F5CF86F00A00F5CF87F0000E286E640E47
:101D0800276EA1C025F0266A22EC15F0D89025365A
:101D18002636D89025362636480E2526000E262249
:101D28001F0E2524F66EFF0E2620F76E0900F5CF4C
:101D380080F00900F5CF81F00900F5CF82F00A00A4
:101D4800F5CF83F0AAEC09F080C09DF081C09EF029
:101D580082C09FF083C0A0F0000E226E0A0E216E92
:101D6800A1C01FF0206AA5EC15F0D8901F362036C8
:101D7800D8901F3620361F0E1F24F66EFF0E202027
:101D8800F76E0900F5CF84F00900F5CF85F009005A
:101D9800F5CF86F00A00F5CF87F09DC080F09EC091
:101DA80081F09FC082F0A0C083F0AAEC09F080C047
:101DB80099F081C09AF082C09BF083C09CF099C0D2
:101DC80080F09AC081F09BC082F09CC083F0000E26
:101DD8000001846F000E856F000E866F3F0E876FBF
:101DE800AAEC09F080C095F081C096F082C097F007
:101DF80083C098F012000A0E0001A1656CD0000E95
:101E0800226E0A0E216EA1C01FF0206AA5EC15F003
:101E1800D8901F362036D8901F3620361F0E1F2424
:101E2800F66EFF0E2020F76E0900F5CF84F009004A
:101E3800F5CF85F00900F5CF86F00A00F5CF87F0D9
:101E4800000E286E0A0E276EA1C025F0266A22EC25
:101E580015F0D89025362636D89025362636240E05
:101E68002526000E26221F0E2524F66EFF0E26209C
:101E7800F76E0900F5CF80F00900F5CF81F0090071
:101E8800F5CF82F00A00F5CF83F0AAEC09F080C004
:101E98009DF081C09EF082C09FF083C0A0F09DC0DD
:101EA80080F09EC081F09FC082F0A0C083F0000E39
:101EB8000001846F000E856F000E866F3F0E876FDE
:101EC800AAEC09F080C095F081C096F082C097F026
:101ED80083C098F012000001A151040D1F0EF324D5
:101EE800F66EFF0EF420F76E0900F5CF80F00900BA
:101EF800F5CF81F00900F5CF82F00A00F5CF83F025
:101F0800000E846F000E856F000E866F3F0E876F80
:101F1800AAEC09F080C095F081C096F082C097F0D5
:101F280083C098F012003CD01F0E0001C26F010E52
:101F3800C36F7B0EC46FFF0EC56F09EC00F04E0E29
:101F48002CD01F0E0001C26F010EC36F900EC46F1C
:101F5800FF0EC56F09EC00F04E0E0101A06F590E7F
:101F68000ED01F0E0001C26F010EC36FA50EC46F05
:101F7800FF0EC56F09EC00F0590E0FD04E0E9F6F83
:101F88001CD01F0E0001C26F010EC36FBA0EC46FC2
:101F9800FF0EC56F09EC00F0D2D70101A06FEED794
:101FA8005A50000AD8B4C0D7010AD8B4CAD7030A0D
:101FB800D8B4D7D7010AD8B4E4D7010E296E010ED8
:101FC8006CEC17F05F0E0001C26F010EC36FE50ED7
:101FD800C46FFF0EC56FE3C0C6F0E4C0C7F0E5C02C
:101FE800C8F0E6C0C9F009EC00F05F0E2D6E010ED6
:101FF8002E6EA5EC16F0010E296E0E0E6CEC17F085
:10200800FB0E2D6EFF0E2E6EA5EC16F0020E296E3D
:10201800010E6CEC17F05F0E0001C26F010EC36F6A
:10202800CD0EC46FFF0EC56FDFC0C6F0E0C0C7F0AD
:10203800E1C0C8F0E2C0C9F009EC00F05F0E2D6EF7
:10204800010E2E6EA5EC16F0020E296E0E0E6CEC2B
:1020580017F00101A051D0EC16F0020E296E100EF7
:102068006CEC17F001019F51D0EC16F0030E296EAD
:10207800010E6CEC17F05F0E0001C26F010EC36F0A
:10208800F00EC46FFF0EC56F5BC0C6F0C76B09ECDE
:1020980000F05F0E2D6E010E2E6EA5EC16F0030EED
:1020A800296E080E6CEC17F05F0E0001C26F010E6E
:1020B800C36FD90EC46FFF0EC56FC1C1C6F0C2C1D0
:1020C800C7F0C3C1C8F0C4C1C9F009EC00F05F0E85
:1020D8002D6E010E2E6EA5EC16F0040E296E010E63
:1020E8006CEC17F05F0E0001C26F010EC36FF70EA4
:1020F800C46FFF0EC56F09EC00F05F0E2D6E010E68
:102108002E6EA5EC16F0040E296E050E6CEC17F079
:102118001F0E2D6E010E2E6EA5EC16F012002D6E00
:102128002D50D8A428AE1AD025C029F026C02AF0F0
:1021380027C02BF028C02CF0291E2A1E2B1E2C1E6F
:10214800292A000E2A222B222C2229C02FF02AC04D
:1021580030F02BC031F02CC032F008D025C02FF061
:1021680026C030F027C031F028C032F025502610A4
:1021780027102810D8A409D0000E256E000E266E50
:10218800000E276E000E286E1200960E2E6E06D0D8
:102198002E2AD8903232313230322F32000E2F149C
:1021A800296E000E30142A6E000E31142B6EFE0EAE
:1021B80032142C6E29502A102B102C10D8B40DD0A4
:1021C800E7D72E2A010E2F26000E30223122322286
:1021D800D8903232313230322F32000E2F14296E1D
:1021E800000E30142A6E000E31142B6EFF0E3214BE
:1021F8002C6E29502A102B102C10D8B407D0E1D7F8
:102208002E06D8902F3630363136323631BE03D0CE
:10221800020E2E60F5D72EB008D0FF0E2F16FF0E37
:1022280030167F0E3116FF0E3216D8902E322EC081
:1022380029F02A6A2B6A2C6A29C02CF02B6A2A6A90
:10224800296A29502F122A5030122B5031122C5043
:1022580032122D50D8A428AE01D0328E2FC025F0CE
:1022680030C026F031C027F032C028F0120021C05B
:1022780027F0286A296A2034273601E32880275066
:102288002F6E2F50D8A409D0000E1F6E000E206E9E
:10229800000E216E000E226E120025C027F0286A5B
:1022A800296A2434273601E3288027502E6E2E50C1
:1022B800D8A409D0000E1F6E000E206E000E216EED
:1022C800000E226E1200208EFF0E1F16FF0E201623
:1022D800000E2116248EFF0E2316FF0E2416000E64
:1022E8002516000E2A6E000E2B6E000E2C6E000EA8
:1022F8002D6E7F0E2F5E2E50980F2F5E180E2E6EAD
:10230800D8902A362B362C362D3623501F5C245075
:10231800205825502158D8A007D023501F5E24509C
:10232800205A2550215A2A80D8901F362036213627
:102338002E2EE6D72FAE16D02F50800A970FD8B082
:1023480009D0000E1F6E000E206E000E216E000ECA
:10235800226E1200D8902D322C322B322A322F3E88
:10236800F9D715D0170E2F640FD0000E1F6E000E70
:10237800206E000E216E000E226E1200D8902A36B2
:102388002B362C362D362F062F50D8A4F7D72AC037
:102398001FF02BC020F02CC021F02DC022F012001D
:1023A800213422342C6E2C50D8A409D0000E1F6E74
:1023B800000E206E000E216E000E226E12002534D3
:1023C80026342B6E2B50D8A409D0000E1F6E000E99
:1023D800206E000E216E000E226E1200218EFF0E5E
:1023E8001F16FF0E2016FF0E2116000E2216258E30
:1023F800FF0E2316FF0E2416FF0E2516000E2616B6
:10240800000E276E000E286E000E296E000E2A6E32
:102418007F0E2C5E2B50A00F2C5E200E2B6ED890BA
:102428002736283629362A3623501F5C2450205850
:102438002550215826502258D8A009D023501F5E75
:102448002450205A2550215A2650225A2780D890A5
:102458001F362036213622362B2EE1D72CAE16D049
:102468002C50800A9F0FD8B009D0000E1F6E000EA6
:10247800206E000E216E000E226E1200D8902A32B5
:102488002932283227322C3EF9D715D01F0E2C645A
:102498000FD0000E1F6E000E206E000E216E000E73
:1024A800226E1200D8902736283629362A362C066E
:1024B8002C50D8A4F7D727C01FF028C020F029C077
:1024C80021F02AC022F012000600FACF0DF0FBCF4F
:1024D8000EF0E9CF0FF0EACF10F0E1CF11F0E2CF24
:1024E80012F0D9CF13F0DACF14F0F3CF15F0F4CF00
:1024F80016F0F6CF17F0F7CF18F0F8CF19F0F5CFA0
:102508001AF060C01BF061C01CF062C01DF063C00F
:102518001EF0F2A211D0020E0C6E450E0B6EAA0E22
:10252800E82EFED70B2EFCD70C2EFAD7F2A204D039
:102538005A28030B5A6EF292F0A21CD0020E0C6EAF
:10254800450E0B6EAA0EE82EFED70B2EFCD70C2ECE
:10255800FAD7F0A20FD0010E5B24016E026A000EBA
:102568000222000E046E050E036EDDEC15F001501C
:102578005B6EF092A1A210D0A1928B8A50C001F09C
:1025880051C002F052C003F053C004F071EC14F0D3
:1025980001C0BBFF02C0BCFFA1A002D0A1908B9AD2
:1025A8001EC063F01DC062F01CC061F01BC060F06B
:1025B8001AC0F5FF19C0F8FF18C0F7FF17C0F6FFDB
:1025C80016C0F4FF15C0F3FF14C0DAFF13C0D9FF1B
:1025D80012C0E2FF11C0E1FF10C0EAFF0FC0E9FF1F
:1025E8000EC0FBFF0DC0FAFF60921100000E000143
:1025F800B615BE6F000EB715BF6F800EB815C06F49
:102608007F0EB915C16FBE51BF11C011C111D8A439
:1026180008D0000EB66F000EB76F000EB86F000E30
:10262800B96F000EBA15BE6F000EBB15BF6F800ED6
:10263800BC15C06F7F0EBD15C16FBE51BF11C01153
:10264800C111D8A408D0000EBA6F000EBB6F000EDF
:10265800BC6F000EBD6FB9AF1DD0B6C0BEF0B7C01D
:10266800BFF0B8C0C0F0B9C0C1F0BE1FBF1FC01FC7
:10267800C11FBE2B000EBF23C023C123000EBE25E1
:10268800B66F000EBF21B76F000EC021B86F800E65
:10269800C121B96FBDAF1DD0BAC0BEF0BBC0BFF07D
:1026A800BCC0C0F0BDC0C1F0BE1FBF1FC01FC11F4E
:1026B800BE2B000EBF23C023C123000EBE25BA6F58
:1026C800000EBF21BB6F000EC021BC6F800EC12160
:1026D800BD6F000EB61B000EB71B000EB81B800E98
:1026E800B91B000EBA1B000EBB1B000EBC1B800ED4
:1026F800BD1BBA51B65DBB51B759BC51B859BD5194
:10270800B959D8B002D0D8901200D880120026EC5F
:1027180018F079EC16F048EC16F050EC18F044EC90
:1027280018F00C0ED0EC16F0000E5A6E000E5B6E10
:102738000400000E206EC80E1F6E02EC18F0000E8A
:102748000001D26F020ED26501D01ED0D251DFEC4B
:1027580014F04CC0CEF04DC0CFF04EC0D0F04FC0FA
:10276800D1F00001D251040DD30EF324D96E000E1E
:10277800F420DA6ECEC0DEFFCFC0DEFFD0C0DEFFB1
:10278800D1C0DEFFD22BDED7D3C080F0D4C081F019
:10279800D5C082F0D6C083F0000E846F000E856F1E
:1027A800A00E866F410E876FAAEC09F080C0DFF09B
:1027B80081C0E0F082C0E1F083C0E2F0DBC080F0CD
:1027C800DCC081F0DDC082F0DEC083F0000E0001C5
:1027D800846F000E856FC80E866F420E876FAAEC55
:1027E80009F080C0E3F081C0E4F082C0E5F083C066
:1027F800E6F0DEEC07F097EC0FF09AD70001A03571
:10280800A135A76FA751D8A409D0000E9E6F000E5E
:102818009F6F000EA06F000EA16F12009EC0A2F065
:102828009FC0A3F0A0C0A4F0A1C0A5F0200E05D0C1
:10283800D890A533A433A333A233E82EF9D7A251F5
:10284800A66FA08FFF0E9E17FF0E9F17FF0EA017F3
:10285800000EA117960EA75FA7AF16D0A751800A42
:10286800970FD8B009D0000E9E6F000E9F6F000E14
:10287800A06F000EA16F1200D890A133A0339F3330
:102888009E33A73FF9D715D01F0EA7650FD0000EAE
:102898009E6F000E9F6F000EA06F000EA16F1200BA
:1028A800D8909E379F37A037A137A707A751D8A43C
:1028B800F7D7A651D8B408D0A11FA01F9F1F9E6D9F
:1028C800000E9F23A023A1239EC09EF09FC09FF0CF
:1028D800A0C0A0F0A1C0A1F01200033404340A6E15
:1028E8000A50D8A409D0000E016E000E026E000E28
:1028F800036E000E046E120001C005F002C006F05F
:1029080003C007F004C008F0200E05D0D8900832A4
:10291800073206320532E82EF9D70550096E038EC4
:10292800FF0E0116FF0E0216FF0E0316000E041608
:10293800960E0A5E0AAE16D00A50800A970FD8B0D3
:1029480009D0000E016E000E026E000E036E000E1E
:10295800046E1200D89004320332023201320A3E69
:10296800F9D715D01F0E0A640FD0000E016E000EA5
:10297800026E000E036E000E046E1200D89001362F
:102988000236033604360A060A50D8A4F7D7095087
:10299800D8B408D0041E031E021E016C000E0222C9
:1029A8000322042201C001F002C002F003C003F0B8
:1029B80004C004F012000001846F000184518DEC02
:1029C80017F01FC085F020C086F085C01FF086C0B4
:1029D80020F0000E226E050E216EEFEC17F01FC0DE
:1029E80025F020C026F0000E26BEFF0E276E286EAA
:1029F800010E93EC10F025C033F026C034F027C048
:102A080035F028C036F0000E376EC00E386E7F0ED7
:102A1800396E440E3A6EF2EC0CF033C080F034C0DC
:102A280081F035C082F036C083F080C04CF081C0A0
:102A38004DF082C04EF083C04FF01200000E2A6E97
:102A480028AE06D0276C281ED8B0282A010E2A6E78
:102A580026AE06D0256C261ED8B0262A010E2A1AC4
:102A6800000E2C6E000E2B6E27502810D8B41CD0E8
:102A7800010E296E04D0D89027362836292A28AE88
:102A8800FAD7D8902B362C362750255C2850265854
:102A9800D8A005D02750255E2850265A2B80D890DC
:102AA80028322732292EEDD72A50D8B404D02B6CDF
:102AB8002C1ED8B02C2A2BC025F02CC026F01200D2
:102AC800000E276E000E286E000E296E000E2A6E6C
:102AD8002350241025102610D8B42AD0010E2B6EAE
:102AE80006D0D89023362436253626362B2A26AE0D
:102AF800F8D7D8902736283629362A3623501F5C2F
:102B0800245020582550215826502258D8A009D0A2
:102B180023501F5E2450205A2550215A2650225AED
:102B28002780D89026322532243223322B2EE1D723
:102B380027C01FF028C020F029C021F02AC022F0A9
:102B48001200000E246E20AE06D01F6C201ED8B0D6
:102B5800202A010E246E22AE04D0216C221ED8B089
:102B6800222A21502210D8B418D0010E236E04D086
:102B7800D89021362236232A22AEFAD721501F5C5C
:102B880022502058D8A004D021501F5E2250205A2D
:102B9800D89022322132232EF1D72450D8B404D031
:102BA8001F6C201ED8B0202A1FC01FF020C020F0A4
:102BB8001200000E066E02AE06D0016C021ED8B0DE
:102BC800022A010E066E04AE04D0036C041ED8B0AF
:102BD800042A03500410D8B418D0010E056E04D08E
:102BE800D89003360436052A04AEFAD70350015CA0
:102BF80004500258D8A004D00350015E0450025A71
:102C0800D89004320332052EF1D70650D8B404D038
:102C1800016C021ED8B0022A01C001F002C002F005
:102C280012003050311032103310D8B424D0010EB5
:102C3800346E06D0D8903036313632363336342AB0
:102C480033AEF8D730502C5C31502D5832502E58B6
:102C580033502F58D8A008D030502C5E31502D5A00
:102C680032502E5A33502F5AD890333232323132B2
:102C78003032342EE7D72CC02CF02DC02DF02EC0CA
:102C88002EF02FC02FF0120084948492000E206E34
:102C9800190E1F6E02EC18F0010E296E030E29643E
:102CA80001D00BD0030E15EC18F0000E206E060EA6
:102CB8001F6E02EC18F0292AF1D7020E15EC18F055
:102CC800000E296E030E296401D012002950010D4F
:102CD8005C0EF324D96E000EF420DA6EDF50276EF6
:102CE800000E48EC17F0292AEDD7000EF26E000E00
:102CF800B16E000E9D6E000E9E6E000E9F6E000E51
:102D0800A06E000EA16E000EA26ED09E090EBA6EC5
:102D1800F292F092F288F088B180F188F18CA0925A
:102D2800F28E000EB16EB150CF0B2009B16EB1809A
:102D3800B18C000EB36E000EB26EA092F28CF28EC1
:102D4800120015D02DC0F6FF2EC0F7FF000EF86E4A
:102D58000F0EF76403D00800F55005D0F6CFE1FF59
:102D6800F7CFE2FFE750D0EC16F02D4A2E2A2DC0FF
:102D7800F6FF2EC0F7FF000EF86E0F0EF76403D0B3
:102D88000800F55005D0F6CFE1FFF7CFE2FFE75096
:102D98000009D8B41200D6D72C6E1ED0010E276EAB
:102DA800000E48EC17F0000E206E020E1F6E02ECAB
:102DB80018F01200020E296E010E6CEC17F01200CA
:102DC800100E276E000E48EC17F012002CC027F0EA
:102DD800010E48EC17F012002C50080AD8B4F0D7AE
:102DE800020AD8B4E7D7060AD8B4D8D7EFD7AC0EBA
:102DF800F66E300EF76E000EF86E00EE5CF010EE18
:102E080004F00900F5CFEEFFE550E150FAE101EEDC
:102E1800A1F0240EEE6AE806FDE100EED3F0160EEE
:102E2800EE6AE806FDE100EE50F00C0EEE6AE806E8
:102E3800FDE160906092000EF86E00018BEF13F0D8
:102E4800000E0001BA1B000EBB1B000EBC1B800E3F
:102E5800BD1BB6C0A2F0B7C0A3F0B8C0A4F0B9C0FB
:102E6800A5F0BAC0A6F0BBC0A7F0BCC0A8F0BDC012
:102E7800A9F053EC0BF0A2C0B6F0A3C0B7F0A4C001
:102E8800B8F0A5C0B9F01200286E28B002D084941A
:102E980001D08484010ED8EC17F0010ED8EC17F09D
:102EA800849227380F0B15EC18F027500F0B15ECF0
:102EB80018F02850D8B405D0320E0400E82EFDD7FB
:102EC8001200000E206E020E1F6E02EC18F01200A7
:102ED8002A6E09D0800E05D0C00E03D0900E01D006
:102EE800D00E2B6E0DD02950010AD8B4F3D7030A9F
:102EF800D8B4F2D7010AD8B4F1D7070AD8B4F0D7B2
:102F08002A042B262B508009276E000E48EC17F058
:102F18001200236E23C021F021462146C2502118F9
:102F2800C30B2118C26EC282C2B2FED7C350C4CF2F
:102F380021F0226A21C022F0216A2110246E225039
:102F4800256E24C01FF025C020F012001FC021F0FC
:102F580020C022F0D89022322132D8902232213259
:102F68002150BE6E1FC021F0030E2116213ABD501C
:102F78002118CF0B2118BD6E1200335034103510B4
:102F88003610D8B408D0000E331A000E341A000ECA
:102F9800351A800E361A33C033F034C034F035C0D9
:102FA80035F036C036F01200226E000E246E000E88
:102FB800236E03D00400234A242A22501F6E206A5D
:102FC80023501F5C2050800A216E2450800A21580B
:102FD800D8A01200EFD71F502102F3CF23F0F4CF6F
:102FE80024F01F502202F350242620502102F350CF
:102FF800242623C01FF024C020F01200000E226EE9
:10300800000E216E07D0C80E04000400E82EFCD77D
:10301800214A222A21501F5C22502058D8A0120091
:10302800F2D7266E26C025F0253A835025180F0BB7
:103038002518836E010ED8EC17F08482040000F086
:1030480084921200000EF16E000EC26E0C0EC16E5C
:103058009368800E946E9268000E956E000E966EC0
:103068001200216E000E206E3A0E216005D02F0E40
:10307800216402D0010E206E20C01FF01F30120004
:10308800CB68000ECA6ECA50FC0B0209CA6E0C0E41
:10309800BD6ECA8494941200000EC26EC280890E5E
:0830A800C06E1200280C0106A5
:10FEEA00000000803F000020410000C84200007A64
:10FEFA004400401C460050C34700247449809618A9
:10FF0A004B20BCBE4C286B6E4EF9021550EC78ADF6
:10FF1A0060CAF249710000803FCDCCCC3D0AD7239C
:10FF2A003C6F12833A17B7D138ACC52737BD37862D
:10FF3A003595BFD63377CC2B325F708930FFE6DB3D
:10FF4A002E08E53C1E6042A20D010000000A0000D6
:10FF5A000064000000E803000010270000A08601EA
:10FF6A000040420F008096980000E1F50500CA9A09
:10FF7A003B4F4646202020202020202020202020E1
:10FF8A00202020202000436F6F6C2020202020207A
:10FF9A002020202020202020202000486561742075
:10FFAA002020202020202020202020202020200067
:10FFBA004175746F20436F6F6C2020202020202011
:10FFCA0020200053503A2025342E31664320004821
:10FFDA00433A2025342E316625250052543A2025ED
:10FFEA00342E3166430048533A202564004D443A82
:06FFFA0000482043000056
:020000040020DA
:08000000FFFFFFFFFFFFFFFF00
:020000040030CA
:0E000000FF011F1FFF8385FF0FC00FE00F40A1
:00000001FF
