:0400000007EF00F016
:100008006482B8ED11F00CEF15F0C60E0101066F11
:10001800000E076F9AEF05F0250E1E19D8B40BD005
:10002800C2C0D9FFC3C0DAFF1EC1DFFF0001C24B47
:10003800C32B9AEF05F0000E0101176F000E166F23
:10004800000E0B6F000E0A6FC4C0F6FFC5C0F7FFA5
:100058000800F55066EC16F0D8A038D0000E010163
:10006800176F000E166F16C11BF017C11CF0000E9B
:100078001E6E0A0E1D6E20EC16F01BC016F11CC079
:1000880017F1D00E0001CA6FFF0ECB6FC4C0F6FF88
:10009800C5C0F7FF0800F550CC6FCD6BCA51CC270F
:1000A800CB51CD23CC51010116270001CD510101BF
:1000B80017230001C44BC52BC4C0F6FFC5C0F7FF0A
:1000C8000800F55066EC16F0D8B0CDD7C4C0F6FFDE
:1000D800C5C0F7FF0800F5502E0AD8A433D0010197
:1000E8000B8D0001C44BC52B000E01011D6F000EC6
:1000F8001C6F1DD01CC11BF01DC11CF0000E1E6E14
:100108000A0E1D6E20EC16F0C4C0F6FFC5C0F7FF3E
:100118000800F5501B26000E1C22D00E1B240101DE
:100128001C6FFF0E1C201D6F0001C44BC52BC4C0E3
:10013800F6FFC5C0F7FF0800F55066EC16F0D8A02A
:100148005ED0D8D7000E01011D6F000E1C6F0B8901
:1001580056D00B856DD01C511D11D8B40AD008514A
:100168001C5D09511D59D8B004D01CC108F11DC12E
:1001780009F11651085D17510959D8B005D0085131
:10018800165F0951175B0ED0000E176F000E166F21
:1001980009D0C2C0D9FFC3C0DAFF200EDF6E00014C
:1001A800C24BC32B01011607D8A017071629F1E186
:1001B8001729D8B410D0EDD704C1D9FF05C1DAFF8B
:1001C800C2C0E1FFC3C0E2FFDFCFE7FF044B052B4E
:1001D8000001C24BC32B01010807D8A00907082951
:1001E800EBE10929D8B49AEF05F0E6D71E0E046FA3
:1001F800010E056F000E096F010E086FACD7C4C061
:10020800F6FFC5C0F7FF0001C44BC52B0800F5CFAA
:100218001EF101011E51000AD8B4A9EF05F0640AC5
:10022800D8B406D0020AD8B494D70F0AD8A4DED717
:10023800070E0B15D8B449D30BA904D0000E1D6FB7
:10024800060E1C6F06C1D9FF07C1DAFFDECF18F111
:10025800DECF19F1DECF1AF1DECF1BF1040E06272F
:10026800000E07231BAF15D018C11BF019C11CF0D5
:100278001AC11DF01BC11EF0F2EC15F01BC018F1DD
:100288001CC019F11DC01AF11EC01BF1030E01019B
:100298000A13000E156F000E146F185119111A1158
:1002A8001B11D8B482D01A351B35820F146F156B09
:1002B800FF0E15231407D8A0150714C11BF015C18C
:1002C8001CF0000E1E6E030E1D6E20EC16F01BC0F7
:1002D80014F11CC015F114C121F015C122F0000E53
:1002E800246E0A0E236E5FEC13F021C014F122C0B5
:1002F80015F1010115AF03D01407D8A01507145143
:100308000008B0EC05F099C00CF19AC00DF19BC043
:100318000EF19CC00FF10CC180F00DC181F00EC12F
:1003280082F00FC183F018C184F019C185F01AC199
:1003380086F01BC187F0D8EC07F080C00CF181C0B3
:100348000DF182C00EF183C00FF10CC11BF00DC17D
:100358001CF00EC11DF00FC11EF0000E1F6E000E26
:10036800206E800E216E3F0E226E28EC11F0D8B060
:1003780005D001011407D8A0150717D00CC11BF030
:100388000DC11CF00EC11DF00FC11EF0000E1F6E36
:10039800000E206E200E216E410E226E28EC11F008
:1003A800D8A003D00101144B152B01011DBF06D0A5
:1003B8001D5121E10D0E1C5DD8B01DD018C1A6F04D
:1003C80019C1A7F01AC1A8F01BC1A9F01C517AECF9
:1003D8000CF099C0AAF09AC0ABF09BC0ACF09CC0DE
:1003E800ADF081EC09F0A6C018F1A7C019F1A8C0BA
:1003F8001AF1A9C01BF1010115BF06D0155124E15E
:100408000A0E145DD8B020D0185119111A111B11F9
:10041800D8B465D018C1A2F019C1A3F01AC1A4F0CC
:100428001BC1A5F0ADEC12F00001A251A311A4115B
:10043800A511D8A454D0010115BF51D0155104E11C
:10044800020E145DD8A04BD00CC11BF00DC11CF0DE
:100458000EC11DF00FC11EF05F0E1F6E700E206ED4
:10046800890E216E400E226E28EC11F0D8B003D010
:100478000101F70E02D00101F80E1427FF0E152313
:100488001451B0EC05F099C00CF19AC00DF19BC065
:100498000EF19CC00FF118C11BF019C11CF01AC154
:1004A8001DF01BC11EF00CC11FF00DC120F00EC1C4
:1004B80021F00FC122F002EC10F01BC010F11CC09B
:1004C80011F11DC012F11EC013F1000E0101186FC9
:1004D800000E196F000E1A6F000E1B6F3CD018C16A
:1004E800A2F019C1A3F01AC1A4F01BC1A5F0ADEC8C
:1004F80012F0A2C010F1A3C011F1A4C012F1A5C05E
:1005080013F118C1BAF019C1BBF01AC1BCF01BC174
:10051800BDF010C121F011C122F012C123F013C1A6
:1005280024F0000EC1EC0EF021C0BEF022C0BFF0D6
:1005380023C0C0F024C0C1F035EC15F0BAC018F1E2
:10054800BBC019F1BCC01AF1BDC01BF1000E0101FE
:10055800156F000E146F010E1E6F0A0E1E19D8B407
:1005680018D01E51040D530EF324F66EFF0EF4201E
:10057800F76E0900F550105D0900F5501159090092
:10058800F55012590900F5501359D8A002D01E2B66
:10059800E4D71EC1CAF00001CB6BCABFCB0701016B
:1005A8001C510001CA2701011D510001CB23010183
:1005B80014510001CA27010115510001CB23CA516A
:1005C8000101165F0001CB510101175B1C511D1180
:1005D800D8B403D01607D8A01707030E0A150001D0
:1005E800CA6F000E01010B150001CB6FCA51CB1168
:1005F800D8B40ED009D0C2C0D9FFC3C0DAFF200ECC
:10060800DF6E0001C24BC32B01011607D8A01707E4
:10061800010117BF05D01751EEE11605D8B0EBD789
:10062800030E0A150001CA6F000E01010B15000127
:10063800CB6FCA51CB11D8B453D0C2C0D9FFC3C0F5
:10064800DAFF2D0EDF6E4AD010C11BF011C11CF06D
:1006580012C11DF013C11EF001011E51040D530EED
:10066800F324F66EFF0EF420F76E0900F5CF1FF0A5
:100678000900F5CF20F00900F5CF21F00A00F5CFE9
:1006880022F0A1EC13F01BC00CF11CC00DF11DC031
:100698000EF11EC00FF10CC128F00DC129F00EC1DA
:1006A8002AF00FC12BF00A0E2C6E000E2D6E000ED4
:1006B8002E6E000E2F6E52EC14F028C00CF129C0DB
:1006C8000DF12AC00EF12BC00FF101010C51300FB2
:1006D800C2C0D9FFC3C0DAFFDF6E0001C24BC32B13
:1006E80001011E071E29D8B40ED0AED7C2C0D9FF4B
:1006F800C3C0DAFF300EDF6E0001C24BC32B01010D
:100708001407D8A0150715BF05D01551EFE114053A
:10071800D8B0ECD71DBF09D01D5104E1090E1C5DEE
:10072800D8A003D0080E1E6F02D01CC11EF11E51A6
:100738001C5F000E1EBFFF0E1D5B1E51D8B409D0F2
:10074800C2C0D9FFC3C0DAFF2E0EDF6E0001C24B54
:10075800C32B01011E51B0EC05F099C000F19AC0FD
:1007680001F19BC002F19CC003F118C184F019C1CA
:1007780085F01AC186F01BC187F000C180F001C165
:1007880081F002C182F003C183F0D8EC07F080C089
:10079800A2F081C0A3F082C0A4F083C0A5F0ADECA4
:1007A80012F0A2C010F1A3C011F1A4C012F1A5C0AB
:1007B80013F173D010C11BF011C11CF012C11DF050
:1007C80013C11EF001011E51040D530EF324F66EE1
:1007D800FF0EF420F76E0900F5CF1FF00900F5CFE2
:1007E80020F00900F5CF21F00A00F5CF22F0A1ECA6
:1007F80013F01BC00CF11CC00DF11DC00EF11EC082
:100808000FF10CC128F00DC129F00EC12AF00FC15B
:100818002BF00A0E2C6E000E2D6E000E2E6E000EA2
:100828002F6E52EC14F028C00CF129C00DF12AC02B
:100838000EF12BC00FF101010C51300FC2C0D9FFCE
:10084800C3C0DAFFDF6E0001C24BC32B10C128F012
:1008580011C129F012C12AF013C12BF001011E5158
:10086800040D530EF324F66EFF0EF420F76E090004
:10087800F5CF2CF00900F5CF2DF00900F5CF2EF0BB
:100888000A00F5CF2FF052EC14F028C010F129C05F
:1008980011F12AC012F12BC013F101011E071E2904
:1008A800D8B40ED087D7C2C0D9FFC3C0DAFF300E84
:1008B800DF6E0001C24BC32B01011C07D8A01D0726
:1008C8001C511D11D8B432D1EED706C1D9FF07C1CA
:1008D800DAFFDECF10F1DDCF11F1000E11BFFF0EF0
:1008E800126F136F020E0627000E072313AF0AD0EC
:1008F800030E0A13131F121F111F106D000E112370
:10090800122313231C511D11D8A408D01051111102
:1009180012111311D8A402D01C4B1D2B010E1E6FEF
:100928000A0E1E19D8B418D01E51040D530EF32404
:10093800F66EFF0EF420F76E0900F550105D090001
:10094800F55011590900F55012590900F55013597D
:10095800D8A002D01E2BE4D7800E1EBF7F0E000148
:10096800CA6F01011C511E5D1D51800A0001CA5940
:10097800D8B003D01CC11EF115D001011D51800A49
:100988000001CA6F01011E511C5D800E1EBF7F0E43
:100998000001CA59D8B006D001011E511C6F1D6B49
:1009A8001CBF1D07010116511711D8B411D0030E31
:1009B8000A150001CA6F000E01010B150001CB6F6B
:1009C800CA51CB11D8B404D001011607D8A0170713
:1009D80001010BAD18D016511C5D1D51800A000194
:1009E800CA6F01011751800A0001CA59D8B006D050
:1009F80001011C51165F1D51175B05D0000E010146
:100A0800176F000E166F800E1EBF7F0E0001CA6F93
:100A1800010116511E5D1751800A0001CA59D8B04C
:100A280008D001011E51165F000E1EBFFF0E175B96
:100A380005D0000E0101176F000E166F1651171121
:100A4800D8B411D0C2C0D9FFC3C0DAFF200EDF6E00
:100A58000001C24BC32B01011607D8A01707165176
:100A68001711D8A4EFD7030E0A150001CA6F000E9C
:100A780001010B150001CB6FCA51CB11D8B44DD071
:100A8800C2C0D9FFC3C0DAFF2D0EDF6E44D01CC12F
:100A9800CAF01DC1CBF00001D890CA37CB37D89027
:100AA800CA37CB37530ECA25F66EFF0ECB21F76E29
:100AB8000900F5CF1FF00900F5CF20F00900F5CFA8
:100AC80021F00A00F5CF22F010C11BF011C11CF073
:100AD80012C11DF013C11EF0A1EC13F01BC028F0C9
:100AE8001CC029F01DC02AF01EC02BF00A0E2C6E67
:100AF800000E2D6E000E2E6E000E2F6E52EC14F0AE
:100B08002850300F01011E6FC2C0D9FFC3C0DAFFE1
:100B18001EC1DFFF0001C24BC32B01011C07D8A077
:100B28001D071C29B4E11D29D8A4B1D7C4C0F6FFFC
:100B3800C5C0F7FF0001C44BC52B0800F5CF1EF157
:100B480001011E51D8A410EF00F0C2C0D9FFC3C0E4
:100B5800DAFF000EDF6E12000001A16F0001A1AFE5
:100B680012D1A16DA151800A120FD8A09AD0000EFF
:100B7800246E0A0E236E000E1E6E640E1D6EA151A9
:100B88001B6E1C6A1BBE1C06E2EC13F01BC021F096
:100B98001CC022F05FEC13F0D89021362236D89092
:100BA80021362236240E2126000E22221F0E212451
:100BB800F66EFF0E2220F76E0900F5CF84F00900CB
:100BC800F5CF85F00900F5CF86F00A00F5CF87F05C
:100BD800000E246E640E236E0001A151216E226A5C
:100BE80021BE22065FEC13F0D89021362236D89029
:100BF80021362236480E2126000E22221F0E2124DD
:100C0800F66EFF0E2220F76E0900F5CF80F009007E
:100C1800F5CF81F00900F5CF82F00A00F5CF83F017
:100C2800D8EC07F080C09DF081C09EF082C09FF094
:100C380083C0A0F09DC080F09EC081F09FC082F06C
:100C4800A0C083F0000E1E6E0A0E1D6E0001A15199
:100C58001B6E1C6A1BBE1C06E2EC13F0D8901B36F8
:100C68001C36D8901B361C361F0E1B24F66EFF0E42
:100C78001C20F76E0900F5CF84F00900F5CF85F048
:100C88000900F5CF86F00A00F5CF87F0D8EC07F019
:100C980080C099F081C09AF082C09BF083C09CF01C
:100CA80012000001A151800A750FD8A056D0000E7D
:100CB800246E0A0E236EA151216E226A21BE2206DD
:100CC8005FEC13F0D89021362236D89021362236A0
:100CD800240E2126000E22221F0E2124F66EFF0E5E
:100CE8002220F76E0900F5CF80F00900F5CF81F0DA
:100CF8000900F5CF82F00A00F5CF83F0000E1E6ED2
:100D08000A0E1D6E0001A1511B6E1C6A1BBE1C063B
:100D1800E2EC13F0D8901B361C36D8901B361C36E4
:100D28001F0E1B24F66EFF0E1C20F76E0900F5CF70
:100D380084F00900F5CF85F00900F5CF86F00A00A8
:100D4800F5CF87F0D8EC07F080C099F081C09AF011
:100D580082C09BF083C09CF012000001A151040DD9
:100D68001F0EF324F66EFF0EF420F76E0900F5CF80
:100D780099F00900F5CF9AF00900F5CF9BF00A0029
:100D8800F5CF9CF01200A151800A120FD8A09AD07A
:100D9800000E246E0A0E236E000E1E6E640E1D6E6B
:100DA800A1511B6E1C6A1BBE1C06E2EC13F01BC093
:100DB80021F01CC022F05FEC13F0D89021362236C7
:100DC800D89021362236240E2126000E2222EB0E40
:100DD8002124F66EFE0E2220F76E0900F5CF84F06E
:100DE8000900F5CF85F00900F5CF86F00A00F5CFA8
:100DF80087F0000E246E640E236E0001A151216E4F
:100E0800226A21BE22065FEC13F0D89021362236E2
:100E1800D89021362236480E2126000E2222EB0ECB
:100E28002124F66EFE0E2220F76E0900F5CF80F021
:100E38000900F5CF81F00900F5CF82F00A00F5CF5F
:100E480083F0D8EC07F080C09DF081C09EF082C08E
:100E58009FF083C0A0F09DC080F09EC081F09FC02D
:100E680082F0A0C083F0000E1E6E0A0E1D6E0001F7
:100E7800A1511B6E1C6A1BBE1C06E2EC13F0D89035
:100E88001B361C36D8901B361C36EB0E1B24F66E10
:100E9800FE0E1C20F76E0900F5CF84F00900F5CF8F
:100EA80085F00900F5CF86F00A00F5CF87F0D8EC79
:100EB80007F080C099F081C09AF082C09BF083C08F
:100EC8009CF012000001A151800A750FD8A056D0DD
:100ED800000E246E0A0E236EA151216E226A21BED5
:100EE80022065FEC13F0D89021362236D8902136AE
:100EF8002236240E2126000E2222EB0E2124F66E25
:100F0800FE0E2220F76E0900F5CF80F00900F5CF1C
:100F180081F00900F5CF82F00A00F5CF83F0000ECA
:100F28001E6E0A0E1D6E0001A1511B6E1C6A1BBEAF
:100F38001C06E2EC13F0D8901B361C36D8901B36F2
:100F48001C36EB0E1B24F66EFE0E1C20F76E0900F5
:100F5800F5CF84F00900F5CF85F00900F5CF86F0CC
:100F68000A00F5CF87F0D8EC07F080C099F081C06F
:100F78009AF082C09BF083C09CF012000001A1513E
:100F8800040DEB0EF324F66EFE0EF420F76E090046
:100F9800F5CF99F00900F5CF9AF00900F5CF9BF04D
:100FA8000A00F5CF9CF0120000018351800B8C6F72
:100FB80083518325926F82BF92819251D8B40DD00C
:100FC8009229D8A408D0000E806F000E816F000E01
:100FD800826F000E836F828F08D0000E806F000E24
:100FE800816F000E826F000E836F8751800B8C1B00
:100FF800875187258D6F86BF8D818D51D8B40DD0CF
:101008008D29D8A408D0000E846F000E856F000EBD
:10101800866F000E876F868F08D0000E846F000ED3
:10102800856F000E866F000E876F8D51D8B403D080
:101038009251D8A409D0000E806F000E816F000E67
:10104800826F000E836F120086518003F3CF97F0F2
:10105800F4CF98F097518E6F8F6B906B916B98517E
:10106800936F946B956B966B85518103F3CF97F0D3
:10107800F4CF98F097518E27000E8F239023912359
:1010880098519327000E9423952396238451820325
:10109800F3CF97F0F4CF98F097518E27000E8F2357
:1010A8009023912398519327000E942395239623F8
:1010B80090C091F08FC090F08EC08FF08E6B8451ED
:1010C8008103F3CF97F0F4CF98F097518E2798517A
:1010D8008F23000E9023000E912385518003F3CFB8
:1010E80097F0F4CF98F097518E2798518F23000EE0
:1010F8009023000E912390C091F08FC090F08EC085
:101108008FF08E6B84518003F3CF97F0F4CF98F073
:1011180097518E2798518F23000E9023000E91230C
:1011280086518103F3CF97F0F4CF98F09751932726
:1011380098519423000E9523000E9623855182031F
:10114800F3CF97F0F4CF98F09751932798519423C1
:10115800000E9523000E962386518203F3CF97F055
:10116800F4CF98F09751886F9851896F8A6B8B6B81
:101178008AC08BF089C08AF088C089F0886B885152
:101188009327895194238A5195238B5196238EC096
:1011980088F08FC089F090C08AF091C08BF0190E4A
:1011A80005D0D8908B338A3389338833E82EF9D722
:1011B80088519327895194238A5195238B519623DB
:1011C80090C091F08FC090F08EC08FF08E6B8D51D3
:1011D80092C088F0896B8827000E8923820E8825A3
:1011E800976FFF0E8921986F0FD0D8909337943757
:1011F8009537963791BF9381D8908E378F37903730
:1012080091379707D8A0980795AFEFD7000E8D6F45
:1012180091AF16D0FF0E8E15886FFF0E8F15896F50
:10122800FF0E90158A6F7F0E91158B6F885189116B
:101238008A118B11D8A402D093A102D0010E8D6F10
:101248008D51D8B41FD0010E9327000E94239523F7
:10125800962396A117D093C088F094C089F095C0C2
:101268008AF096C08BF08B358B338A338933883379
:1012780088C093F089C094F08AC095F08BC096F02E
:10128800974B982B98BF0DD0985103E19729D8A078
:1012980008D0000E936F000E946F800E956F7F0E2E
:1012A80020D098BF05D098510EE19705D8B00BD043
:1012B800000E936F000E946F000E956F000E966FE0
:1012C800000E8C6F0FD097C092F0FF0E9317FF0E91
:1012D80094177F0E9517000E961792B1958FD89098
:1012E8009231966F8C51961393C080F094C081F020
:1012F80095C082F096C083F012000001A951800BBE
:10130800B66FA951A925B86FA8BFB881B851D8B48C
:101318000DD0B829D8A408D0000EA66F000EA76F6C
:10132800000EA86F000EA96FA88F06D0000EA66F3A
:10133800000EA76F000EA86F000EA96FAD51800BAD
:10134800B76FB651B719D8A4B68DAD51AD25B76FE3
:10135800ACBFB781B751D8B40DD0B729D8A408D03D
:10136800000EAA6F000EAB6F000EAC6F000EAD6FD3
:10137800AC8F06D0000EAA6F000EAB6F000EAC6FDC
:10138800000EAD6FB851B75DD8B022D0B6AD02D05F
:10139800800EB61BB8C0B9F0B7C0B8F0B9C0B7F086
:1013A800A6C0B9F0AAC0A6F0B9C0AAF0A7C0B9F003
:1013B800ABC0A7F0B9C0ABF0A8C0B9F0ACC0A8F0FA
:1013C800B9C0ACF0A9C0B9F0ADC0A9F0B9C0ADF0D2
:1013D800000EB96FB851AE6FAF6BAE1FAF1FAE4BFB
:1013E800AF2BB751B06FB16BAE51B027AF51B1232E
:1013F800B1BF2CD0B15104E11A0EB05DD8A026D0EF
:10140800A651A711A811A911D8B402D0010E01D074
:10141800000EB96F000EA66F000EA76F000EA86F22
:10142800000EA96FB7C0B8F015D0B9A105D0D890F3
:10143800B9310109B96F02D0D890B933A6B1B98FC3
:10144800A935A933A833A733A633B82BB751B85D4C
:10145800D8A0EBD7B6BD29D0B851D8A409D0000E72
:10146800A66F000EA76F000EA86F000EA96F1200DE
:10147800AA51A627AB51A723AC51A823AD51A92344
:10148800A9A183D0B9A106D0D890B933B95101091F
:10149800B96F02D0D890B933A6B1B98FA935A9339D
:1014A800A833A733A633B82B70D0AA51A65DAB5189
:1014B800A759AC51A859A951800AAE6FAD51800AFD
:1014C800AE59D8B036D0A6C0AEF0A7C0AFF0A8C00D
:1014D800B0F0A9C0B1F0AE1FAF1FB01FB11FAE2B47
:1014E800000EAF23B023B123AA51AE25B26FAB5182
:1014F800AF21B36FAC51B021B46FAD51B121B56F0D
:10150800FF0EB225A66FFF0EB321A76FFF0EB42101
:10151800A86FFF0EB521A96F800EB61BB96DB95122
:10152800D8A40FD0010EA627000EA723A823A9230D
:1015380008D0AA51A65FAB51A75BAC51A85BAD51CF
:10154800A95BA651A711A811A911D8A41CD0B951FB
:10155800D8A419D0000EA66F000EA76F000EA86FB2
:10156800000EA96F1200D890A637A737A837A93759
:10157800B9BFA681B9A102D0D88001D0D890B93717
:10158800B851D8A4B807A8AFEED7000EB76FB9AF57
:101598000AD0B9C0AEF07F0EAE17D8A402D0A6A16B
:1015A80002D0010EB76FB751D8B420D0010EA627CC
:1015B800000EA723A823A923A9A118D0A6C0AEF07E
:1015C800A7C0AFF0A8C0B0F0A9C0B1F0B135B13331
:1015D800B033AF33AE33AEC0A6F0AFC0A7F0B0C0E3
:1015E800A8F0B1C0A9F0B829D8A4B82BB829D8B4A4
:1015F80003D0B851D8A40DD0000EA66F000EA76F67
:10160800000EA86F000EA96FB851D8A402D0000E22
:10161800B66FB8A102D0A88F01D0A89FD890B831D2
:10162800A96FB6BFA98FA6C0A6F0A7C0A7F0A8C08B
:10163800A8F0A9C0A9F012003250800B3B6E3250BE
:101648003224466E31BE46804650D8B40DD0462866
:10165800D8A408D0000E2F6E000E306E000E316E2A
:10166800000E326E318E06D0000E2F6E000E306ED8
:10167800000E316E000E326E3650800B3B1A36501B
:101688003624476E35BE47804750D8B40DD047281A
:10169800D8A408D0000E336E000E346E000E356EDE
:1016A800000E366E358E06D0000E336E000E346E88
:1016B800000E356E000E366E33503410351036106D
:1016C800D8A415D0000E2F6E000E306E000E316EAD
:1016D800000E326E800E31127F0E32122FC02FF0A4
:1016E80030C030F031C031F032C032F01200465014
:1016F800D8A411D0000E2F6E000E306E000E316E81
:10170800000E326E2FC02FF030C030F031C031F0F3
:1017180032C032F012004750376E386A371E381E12
:10172800374A382A4650396E3A6A3750392638507F
:101738003A227F0E3924406E000E3A20416E2FC0A7
:101748003CF030C03DF031C03EF032C03FF0000EFA
:101758002F6E000E306E000E316E000E326E000ECF
:10176800426E000E436E000E446E000E456E000E73
:10177800476E28D04750D8B411D0D8903C363D3663
:101788003E363F36D8902F3630363136323645BE63
:101798002F80D890423643364436453633503C5C29
:1017A80034503D5835503E5836503F58D8A009D08F
:1017B800458C33503C5E34503D5A35503E5A365075
:1017C8003F5A472A190E4764D5D73C503D103E1062
:1017D8003F10D8B411D042800FD0D8902F36303671
:1017E8003136323645BE2F80D8904236433644369D
:1017F80045364006D8A0410631AEEFD7000E476EF9
:1018080045AE16D0FF0E4214376EFF0E4314386EE5
:10181800FF0E4414396E7F0E45143A6E3750381057
:1018280039103A10D8A402D02FA002D0010E476E6A
:101838004750D8B41FD0010E2F26000E3022312277
:10184800322232A017D02FC037F030C038F031C064
:1018580039F032C03AF03A343A3239323832373223
:1018680037C02FF038C030F039C031F03AC032F00C
:10187800404A412A41BE10D0415003E14028D8A037
:101888000BD0000E416E4068000E2F6E000E306EB9
:10189800000E316E000E326E41BE05D0415011E18E
:1018A8004004D8B00ED0000E416E000E406E000EFF
:1018B8002F6E000E306E000E316E000E326E000E6E
:1018C8003B6E40C046F046A002D0318E01D0319E1A
:1018D800D8904630326E3B5032122FC02FF030C0B5
:1018E80030F031C031F032C032F012000001A56F83
:1018F8006D0E0001A565ADD0000E246E0A0E236E94
:10190800000E1E6E640E1D6EA5C01BF01C6AE2EC74
:1019180013F01BC021F01CC022F05FEC13F0D8902C
:1019280021362236D89021362236240E2126000E62
:1019380022221F0E2124F66EFF0E2220F76E0900C8
:10194800F5CF84F00900F5CF85F00900F5CF86F0D2
:101958000A00F5CF87F0000E246E640E236EA5C032
:1019680021F0226A5FEC13F0D89021362236D89005
:1019780021362236480E2126000E22221F0E21244F
:10198800F66EFF0E2220F76E0900F5CF80F00900F1
:10199800F5CF81F00900F5CF82F00A00F5CF83F08A
:1019A800D8EC07F080C0A1F081C0A2F082C0A3F0FB
:1019B80083C0A4F0000E1E6E0A0E1D6EA5C01BF09B
:1019C8001C6AE2EC13F0D8901B361C36D8901B36F4
:1019D8001C361F0E1B24F66EFF0E1C20F76E090026
:1019E800F5CF84F00900F5CF85F00900F5CF86F032
:1019F8000A00F5CF87F0A1C080F0A2C081F0A3C093
:101A080082F0A4C083F0D8EC07F080C09DF081C0BC
:101A18009EF082C09FF083C0A0F09DC080F09EC061
:101A280081F09FC082F0A0C083F0000E0001846F97
:101A3800000E856F000E866F3F0E876FD8EC07F09B
:101A480080C099F081C09AF082C09BF083C09CF05E
:101A580012000A0E0001A5656CD0000E1E6E0A0E5B
:101A68001D6EA5C01BF01C6AE2EC13F0D8901B3663
:101A78001C36D8901B361C361F0E1B24F66EFF0E24
:101A88001C20F76E0900F5CF84F00900F5CF85F02A
:101A98000900F5CF86F00A00F5CF87F0000E246E16
:101AA8000A0E236EA5C021F0226A5FEC13F0D890CD
:101AB80021362236D89021362236240E2126000ED1
:101AC80022221F0E2124F66EFF0E2220F76E090037
:101AD800F5CF80F00900F5CF81F00900F5CF82F04D
:101AE8000A00F5CF83F0D8EC07F080C0A1F081C0E0
:101AF800A2F082C0A3F083C0A4F0A1C080F0A2C06D
:101B080081F0A3C082F0A4C083F0000E0001846FAE
:101B1800000E856F000E866F3F0E876FD8EC07F0BA
:101B280080C099F081C09AF082C09BF083C09CF07D
:101B380012000001A551040D1F0EF324F66EFF0ECE
:101B4800F420F76E0900F5CF80F00900F5CF81F099
:101B58000900F5CF82F00A00F5CF83F0000E846FFC
:101B6800000E856F000E866F3F0E876FD8EC07F06A
:101B780080C099F081C09AF082C09BF083C09CF02D
:101B880012003CD01F0E0001C26F010EC36F7B0E06
:101B9800C46FFF0EC56F09EC00F04E0E2CD01F0E5F
:101BA8000001C26F010EC36F900EC46FFF0EC56FA8
:101BB80009EC00F04E0E0101A06F590E0ED01F0E59
:101BC8000001C26F010EC36FA50EC46FFF0EC56F73
:101BD80009EC00F0590E0FD04E0E9F6F1CD01F0E4F
:101BE8000001C26F010EC36FBA0EC46FFF0EC56F3E
:101BF80009EC00F0D2D70101A06FEED75E50000AC1
:101C0800D8B4C0D7010AD8B4CAD7030AD8B4D7D72A
:101C1800010AD8B4E4D7010E256E010E7DEC15F04B
:101C28005F0E0001C26F010EC36FE50EC46FFF0E99
:101C3800C56FA5C1C6F0A6C1C7F0A7C1C8F0A8C1A5
:101C4800C9F009EC00F05F0E296E010E2A6EB6ECA1
:101C580014F0010E256E0E0E7DEC15F0FB0E296EAC
:101C6800FF0E2A6EB6EC14F0020E256E010E7DEC06
:101C780015F05F0E0001C26F010EC36FCD0EC46F69
:101C8800FF0EC56FA1C1C6F0A2C1C7F0A3C1C8F0BD
:101C9800A4C1C9F009EC00F05F0E296E010E2A6E8E
:101CA800B6EC14F0020E256E0E0E7DEC15F0010157
:101CB800A051E1EC14F0020E256E100E7DEC15F02B
:101CC80001019F51E1EC14F0030E256E010E7DEC2D
:101CD80015F05F0E0001C26F010EC36FF00EC46FE6
:101CE800FF0EC56F5FC0C6F0C76B09EC00F05F0E52
:101CF800296E010E2A6EB6EC14F0030E256E080E3E
:101D08007DEC15F05F0E0001C26F010EC36FD90E96
:101D1800C46FFF0EC56FA9C1C6F0AAC1C7F0ABC199
:101D2800C8F0ACC1C9F009EC00F05F0E296E010ED5
:101D38002A6EB6EC14F0040E256E010E7DEC15F03B
:101D48005F0E0001C26F010EC36FF70EC46FFF0E66
:101D5800C56F09EC00F05F0E296E010E2A6EB6EC15
:101D680014F0040E256E050E7DEC15F01F0E296E7D
:101D7800010E2A6EB6EC14F01200296E2950D8A470
:101D880024AE1AD021C025F022C026F023C027F0A7
:101D980024C028F0251E261E271E281E252A000ED0
:101DA80026222722282225C02BF026C02CF027C067
:101DB8002DF028C02EF008D021C02BF022C02CF026
:101DC80023C02DF024C02EF02150221023102410FF
:101DD800D8A409D0000E216E000E226E000E236ECC
:101DE800000E246E1200960E2A6E06D02A2AD8906B
:101DF8002E322D322C322B32000E2B14256E000E73
:101E08002C14266E000E2D14276EFE0E2E14286E2E
:101E18002550261027102810D8B40DD0E7D72A2A25
:101E2800010E2B26000E2C222D222E22D8902E3287
:101E38002D322C322B32000E2B14256E000E2C1452
:101E4800266E000E2D14276EFF0E2E14286E2550B8
:101E5800261027102810D8B407D0E1D72A06D89022
:101E68002B362C362D362E362DBE03D0020E2A6088
:101E7800F5D72AB008D0FF0E2B16FF0E2C167F0EB2
:101E88002D16FF0E2E16D8902A322AC025F0266A63
:101E9800276A286A25C028F0276A266A256A2550F5
:101EA8002B1226502C1227502D1228502E12295052
:101EB800D8A424AE01D02E8E2BC021F02CC022F045
:101EC8002DC023F02EC024F012001DC023F0246A78
:101ED800256A1C34233601E3248023502B6E2B50B3
:101EE800D8A409D0000E1B6E000E1C6E000E1D6ECD
:101EF800000E1E6E120021C023F0246A256A2034C9
:101F0800233601E3248023502A6E2A50D8A409D00E
:101F1800000E1B6E000E1C6E000E1D6E000E1E6E57
:101F280012001C8EFF0E1B16FF0E1C16000E1D162F
:101F3800208EFF0E1F16FF0E2016000E2116000E13
:101F4800266E000E276E000E286E000E296E7F0E7C
:101F58002B5E2A50980F2B5E180E2A6ED8902636C4
:101F68002736283629361F501B5C20501C58215014
:101F78001D58D8A007D01F501B5E20501C5A215056
:101F88001D5A2680D8901B361C361D362A2EE6D7B9
:101F98002BAE16D02B50800A970FD8B009D0000E60
:101FA8001B6E000E1C6E000E1D6E000E1E6E1200C3
:101FB800D89029322832273226322B3EF9D715D02D
:101FC800170E2B640FD0000E1B6E000E1C6E000E39
:101FD8001D6E000E1E6E1200D89026362736283643
:101FE80029362B062B50D8A4F7D726C01BF027C0BC
:101FF8001CF028C01DF029C01EF012001D341E342C
:10200800286E2850D8A409D0000E1B6E000E1C6E36
:10201800000E1D6E000E1E6E120021342234276E33
:102028002750D8A409D0000E1B6E000E1C6E000E9F
:102038001D6E000E1E6E12001D8EFF0E1B16FF0E6B
:102048001C16FF0E1D16000E1E16218EFF0E1F16E3
:10205800FF0E2016FF0E2116000E2216000E236E0C
:10206800000E246E000E256E000E266E7F0E285E72
:102078002750A00F285E200E276ED89023362436CE
:10208800253626361F501B5C20501C5821501D58E1
:1020980022501E58D8A009D01F501B5E20501C5A31
:1020A80021501D5A22501E5A2380D8901B361C36A8
:1020B8001D361E36272EE1D728AE16D02850800AA6
:1020C8009F0FD8B009D0000E1B6E000E1C6E000EBC
:1020D8001D6E000E1E6E1200D89026322532243254
:1020E8002332283EF9D715D01F0E28640FD0000ED2
:1020F8001B6E000E1C6E000E1D6E000E1E6E120072
:10210800D890233624362536263628062850D8A4D3
:10211800F7D723C01BF024C01CF025C01DF026C033
:102128001EF0120085D081B61200000E1C6EFA0E49
:102138001B6E33EC16F081B61200000E1C6E000EFA
:102148001B6EDBEC15F08294000E0101A96F000EE6
:10215800AA6F000EAB6F000EAC6FA0901200000EBD
:10216800336E000E346EA00E356E400E366E4EC0C5
:102178002FF04FC030F050C031F051C032F020EC99
:102188000BF02FC080F030C081F031C082F032C037
:1021980083F0000E0001846F000E856FC80E866FF5
:1021A800420E876FD8EC07F080C0A9F181C0AAF170
:1021B80082C0ABF183C0ACF1010EBEEC15F01BC0C0
:1021C8005CF01CC05DF05CC01BF05DC01CF0DBEC7B
:1021D80015F01200000E336E000E346EA00E356E30
:1021E800400E366E4EC02FF04FC030F050C031F068
:1021F80051C032F020EC0BF02FC080F030C081F0DD
:1022080031C082F032C083F0000E0001846F000EEE
:10221800856FC80E866F420E876FD8EC07F080C0B6
:10222800A9F181C0AAF182C0ABF183C0ACF1120060
:102238005E50000AD8B477D7010AD8B490D7030AF9
:10224800D8B4C8D7010A1200000E1B14236E000E62
:102258001C14246E800E1D14256E7F0E1E14266E0F
:102268002350241025102610D8A408D0000E1B6E69
:10227800000E1C6E000E1D6E000E1E6E000E1F144A
:10228800236E000E2014246E800E2114256E7F0EFE
:102298002214266E2350241025102610D8A408D006
:1022A800000E1F6E000E206E000E216E000E226EB4
:1022B8001EAE1DD01BC023F01CC024F01DC025F08D
:1022C8001EC026F0231E241E251E261E232A000EAD
:1022D800242225222622000E23241B6E000E2420F1
:1022E8001C6E000E25201D6E800E26201E6E22AE4E
:1022F8001DD01FC023F020C024F021C025F022C02B
:1023080026F0231E241E251E261E232A000E242204
:1023180025222622000E23241F6E000E2420206E64
:10232800000E2520216E800E2620226E000E1B1A1C
:10233800000E1C1A000E1D1A800E1E1A000E1F1AFF
:10234800000E201A000E211A800E221A1F501B5C44
:1023580020501C5821501D5822501E58D8B002D069
:10236800D8901200D88012000600FACF09F0FBCFEF
:102378000AF0E9CF0BF0EACF0CF0E1CF0DF0E2CF95
:102388000EF0D9CF0FF0DACF10F0F3CF11F0F4CF71
:1023980012F0F6CF13F0F7CF14F0F8CF15F0F5CF11
:1023A80016F064C017F065C018F066C019F067C071
:1023B8001AF0F2A211D0020E086E450E076EAA0E90
:1023C800E82EFED7072EFCD7082EFAD7F2A204D0A3
:1023D8005E28030B5E6EF292F0A21CD0020E086E0D
:1023E800450E076EAA0EE82EFED7072EFCD7082E3C
:1023F800FAD7F0A20FD0010E5F24016E026A000E18
:102408000222000E046E050E036E1AEC14F0015041
:102418005F6EF092A1B2A1921AC067F019C066F07F
:1024280018C065F017C064F016C0F5FF15C0F8FFB6
:1024380014C0F7FF13C0F6FF12C0F4FF11C0F3FF7A
:1024480010C0DAFF0FC0D9FF0EC0E2FF0DC0E1FFD8
:102458000CC0EAFF0BC0E9FF0AC0FBFF09C0FAFF86
:102468006492110057EC16F09EEC15F085EC14F010
:1024780081EC16F075EC16F00C0EE1EC14F0000E81
:102488005E6E000E5F6E0400000E1C6EC80E1B6EA2
:1024980033EC16F0000E0001D26F020ED26501D0A7
:1024A8001ED0D2511CEC13F080C0CEF081C0CFF00A
:1024B80082C0D0F083C0D1F00001D251040D4A0E81
:1024C800F324D96E000EF420DA6ECEC0DEFFCFC042
:1024D800DEFFD0C0DEFFD1C0DEFFD22BDED74AC080
:1024E80080F04BC081F04CC082F04DC083F0000EEC
:1024F800846F000E856FA00E866F410E876FD8EC33
:1025080007F080C0A1F181C0A2F182C0A3F183C00D
:10251800A4F152C080F053C081F054C082F055C07D
:1025280083F0000E0001846F000E856FC80E866F61
:10253800420E876FD8EC07F080C0A5F181C0A6F1E4
:1025480082C0A7F183C0A8F196EC10F0C5EC0DF09D
:102558009AD70001A435A535496E4950D8A409D0A9
:10256800000EA26F000EA36F000EA46F000EA56FE1
:102578001200A2C0A6F0A3C0A7F0A4C0A8F0A5C0EE
:10258800A9F0200E05D0D890A933A833A733A633D5
:10259800E82EF9D7A651486EA48FFF0EA217FF0E9A
:1025A800A317FF0EA417000EA517960E495E49AE95
:1025B80016D04950800A970FD8B009D0000EA26FE4
:1025C800000EA36F000EA46F000EA56F1200D89026
:1025D800A533A433A333A233493EF9D715D01F0E30
:1025E80049640FD0000EA26F000EA36F000EA46FF7
:1025F800000EA56F1200D890A237A337A437A537CD
:1026080049064950D8A4F7D74850D8B408D0A51FD0
:10261800A41FA31FA26D000EA323A423A523A2C059
:10262800A2F0A3C0A3F0A4C0A4F0A5C0A5F0120016
:102638000001886F00018851BEEC15F01BC089F0BD
:102648001CC08AF089C01BF08AC01CF0000E1E6EE8
:10265800050E1D6E20EC16F01BC021F01CC022F0E8
:10266800000E22BEFF0E236E246E010EC1EC0EF08A
:1026780021C02FF022C030F023C031F024C032F046
:10268800000E336EC00E346E7F0E356E440E366EFD
:1026980020EC0BF02FC084F030C085F031C086F0FC
:1026A80032C087F084C080F085C081F086C082F097
:1026B80087C083F01200000E266E24AE06D0236C6D
:1026C800241ED8B0242A010E266E22AE06D0216C14
:1026D800221ED8B0222A010E261A000E286E000EDD
:1026E800276E23502410D8B41CD0010E256E04D0B8
:1026F800D89023362436252A24AEFAD7D890273600
:1027080028362350215C24502258D8A005D02350C5
:10271800215E2450225A2780D89024322332252E35
:10272800EDD72650D8B404D0276C281ED8B0282A54
:1027380027C021F028C022F01200000E236E000EE0
:10274800246E000E256E000E266E1F5020102110DC
:102758002210D8B42AD0010E276E06D0D8901F3682
:10276800203621362236272A22AEF8D7D8902336AB
:102778002436253626361F501B5C20501C58215005
:102788001D5822501E58D8A009D01F501B5E20503B
:102798001C5A21501D5A22501E5A2380D89022328A
:1027A800213220321F32272EE1D723C01BF024C04C
:1027B8001CF025C01DF026C01EF01200000E206E71
:1027C8001CAE06D01B6C1C1ED8B01C2A010E206E35
:1027D8001EAE04D01D6C1E1ED8B01E2A1D501E1021
:1027E800D8B418D0010E1F6E04D0D8901D361E36EE
:1027F8001F2A1EAEFAD71D501B5C1E501C58D8A0AD
:1028080004D01D501B5E1E501C5AD8901E321D321B
:102818001F2EF1D72050D8B404D01B6C1C1ED8B082
:102828001C2A1BC01BF01CC01CF01200000E066EF8
:1028380002AE06D0016C021ED8B0022A010E066E46
:1028480004AE04D0036C041ED8B0042A035004104C
:10285800D8B418D0010E056E04D0D89003360436CB
:10286800052A04AEFAD70350015C04500258D8A0D8
:1028780004D00350015E0450025AD8900432033247
:10288800052EF1D70650D8B404D0016C021ED8B07A
:10289800022A01C001F002C002F012002C502D10D3
:1028A8002E102F10D8B424D0010E306E06D0D89038
:1028B8002C362D362E362F36302A2FAEF8D72C5000
:1028C800285C2D5029582E502A582F502B58D8A004
:1028D80008D02C50285E2D50295A2E502A5A2F5095
:1028E8002B5AD8902F322E322D322C32302EE7D759
:1028F80028C028F029C029F02AC02AF02BC02BF0C4
:10290800120084948492000E1C6E190E1B6E33EC18
:1029180016F0010E256E030E256401D00BD0030EB0
:1029280046EC16F0000E1C6E060E1B6E33EC16F00D
:10293800252AF1D7020E46EC16F0000E256E030E7E
:10294800256401D012002550010D600EF324D96EC4
:10295800000EF420DA6EDF50236E000E59EC15F0ED
:10296800252AEDD715D029C0F6FF2AC0F7FF000E9B
:10297800F86E0F0EF76403D00800F55005D0F6CFB7
:10298800E1FFF7CFE2FFE750E1EC14F0294A2A2AE9
:1029980029C0F6FF2AC0F7FF000EF86E0F0EF76485
:1029A80003D00800F55005D0F6CFE1FFF7CFE2FFDE
:1029B800E7500009D8B41200D6D7286E1ED0010EF1
:1029C800236E000E59EC15F0000E1C6E020E1B6EE5
:1029D80033EC16F01200020E256E010E7DEC15F098
:1029E8001200100E236E000E59EC15F0120028C0CC
:1029F80023F0010E59EC15F012002850080AD8B43B
:102A0800F0D7020AD8B4E7D7060AD8B4D8D7EFD790
:102A18000E0EF66E2D0EF76E000EF86E00EE60F0DC
:102A280010EE04F00900F5CFEEFFE550E150FAE1B1
:102A380001EEA1F00C0EEE6AE806FDE100EED3F01F
:102A4800200EEE6AE806FDE100EE4AF0160EEE6A88
:102A5800E806FDE164906492000EF86E000136EF1E
:102A680012F0000E0001BE1B000EBF1B000EC01BA3
:102A7800800EC11BBAC0A6F0BBC0A7F0BCC0A8F0AE
:102A8800BDC0A9F0BEC0AAF0BFC0ABF0C0C0ACF0DA
:102A9800C1C0ADF081EC09F0A6C0BAF0A7C0BBF088
:102AA800A8C0BCF0A9C0BDF01200246E24B002D0AA
:102AB800849401D08484010E09EC16F0010E09EC0F
:102AC80016F0849223380F0B46EC16F023500F0BA8
:102AD80046EC16F02450D8B405D0320E0400E82E87
:102AE800FDD71200000E1C6E020E1B6E33EC16F0A2
:102AF8001200266E09D0800E05D0C00E03D0900EAD
:102B080001D0D00E276E0DD02550010AD8B4F3D7C6
:102B1800030AD8B4F2D7010AD8B4F1D7070AD8B44F
:102B2800F0D72604272627508009236E000E59EC7B
:102B380015F01200000EF26ED09EF292F092A19261
:102B4800F288F088000EB16EB180000EF16EF18847
:102B5800F18C000E9D6E000E9E6E000E9F6E000E94
:102B6800A06E000EA06E000EA16E000EA26EA080D8
:102B7800F28E12001F6E1FC01DF01D461D46C2506A
:102B88001D18C30B1D18C26EC282C2B2FED7C35035
:102B9800C4CF1DF01E6A1DC01EF01D6A1D10206ED8
:102BA8001E50216E20C01BF021C01CF012001BC05B
:102BB8001DF01CC01EF0D8901E321D32D8901E3257
:102BC8001D321D50BE6E1BC01DF0030E1D161D3A92
:102BD800BD501D18CF0B1D18BD6E12001B501C10C8
:102BE8001D101E10D8B408D0000E1B1A000E1C1A97
:102BF800000E1D1A800E1E1A1BC01BF01CC01CF0F4
:102C08001DC01DF01EC01EF012001E6E000E206EAC
:102C1800000E1F6E03D004001F4A202A1E501B6E90
:102C28001C6A1F501B5C1C50800A1D6E2050800AB5
:102C38001D58D8A01200EFD71B501D02F3CF1FF06C
:102C4800F4CF20F01B501E02F35020261C501D020A
:102C5800F35020261FC01BF020C01CF01200000EED
:102C68001E6E000E1D6E07D0C80E04000400E82E6C
:102C7800FCD71D4A1E2A1D501B5C1E501C58D8A08C
:102C88001200F2D7226E22C021F0213A8350211877
:102C98000F0B2118836E010E09EC16F084820400D4
:102CA80000F084921200000EF16E000EC26E0C0E3F
:102CB800C16E9368800E946E9268000E956E000E39
:102CC800966E12001D6E000E1C6E3A0E1D6005D029
:102CD8002F0E1D6402D0010E1C6E1CC01BF01B3091
:102CE8001200CB68000ECA6ECA50FC0B0209CA6EED
:102CF8000C0EBD6ECA8494941200000EC26EC2807F
:0A2D0800890EC06E1200280C0106AF
:10FEEA00000000803F000020410000C84200007A64
:10FEFA004400401C460050C34700247449809618A9
:10FF0A004B20BCBE4C286B6E4EF9021550EC78ADF6
:10FF1A0060CAF249710000803FCDCCCC3D0AD7239C
:10FF2A003C6F12833A17B7D138ACC52737BD37862D
:10FF3A003595BFD63377CC2B325F708930FFE6DB3D
:10FF4A002E08E53C1E6042A20D010000000A0000D6
:10FF5A000064000000E803000010270000A08601EA
:10FF6A000040420F008096980000E1F50500CA9A09
:10FF7A003B4F4646202020202020202020202020E1
:10FF8A00202020202000436F6F6C2020202020207A
:10FF9A002020202020202020202000486561742075
:10FFAA002020202020202020202020202020200067
:10FFBA004175746F20436F6F6C2020202020202011
:10FFCA0020200053503A2025342E31664320004821
:10FFDA00433A2025342E316625250052543A2025ED
:10FFEA00342E3166430048533A202564004D443A82
:06FFFA0000482043000056
:020000040020DA
:08000000FFFFFFFFFFFFFFFF00
:020000040030CA
:0E000000FF011F1FFF8385FF0FC00FE00F40A1
:00000001FF
