:0400000007EF00F016
:1000080064825BED12F0ACEF15F0BA0E0001C86F18
:10001800000EC96F48EF05F0250EE019D8B40AD0D4
:10002800B6C0D9FFB7C0DAFFE0C0DFFFB64BB72BC9
:1000380048EF05F0000ED96F000ED86F000ECD6F97
:10004800000ECC6FB8C0F6FFB9C0F7FF0800F55036
:1000580006EC17F0D8A034D0000E0001D96F000EBE
:10006800D86FD8C01BF0D9C01CF0000E1E6E0A0E47
:100078001D6EC0EC16F01BC0D8F01CC0D9F0D00E15
:100088000001BE6FFF0EBF6FB8C0F6FFB9C0F7FF23
:100098000800F550C06FC16BBE51C027BF51C123C6
:1000A800C051D827C151D923B84BB92BB8C0F6FFD6
:1000B800B9C0F7FF0800F55006EC17F0D8B0D1D753
:1000C800B8C0F6FFB9C0F7FF0800F5502E0AD8A44B
:1000D80030D00001CD8DB84BB92B000EDF6F000E6C
:1000E800DE6F1CD0DEC01BF0DFC01CF0000E1E6EE1
:1000F8000A0E1D6EC0EC16F0B8C0F6FFB9C0F7FFC7
:100108000800F5501B26000E1C22D00E1B240001EF
:10011800DE6FFF0E1C20DF6FB84BB92BB8C0F6FF9F
:10012800B9C0F7FF0800F55006EC17F0D8A05AD070
:10013800D9D7000E0001DF6F000EDE6FCD8952D0D7
:10014800CD8568D0DE51DF11D8B40AD0CA51DE5D42
:10015800CB51DF59D8B004D0DEC0CAF0DFC0CBF035
:10016800D851CA5DD951CB59D8B005D0CA51D85F3A
:10017800CB51D95B0DD0000ED96F000ED86F08D0C7
:10018800B6C0D9FFB7C0DAFF200EDF6EB64BB72B6B
:10019800D807D8A0D907D829F3E1D929D8B40FD0DE
:1001A800EFD7C6C0D9FFC7C0DAFFB6C0E1FFB7C0F6
:1001B800E2FFDFCFE7FFC64BC72BB64BB72BCA070B
:1001C800D8A0CB07CA29EDE1CB29D8B448EF05F070
:1001D800E8D7E00EC66F000EC76F000ECB6F010E9A
:1001E800CA6FB0D7B8C0F6FFB9C0F7FF0001B84B67
:1001F800B92B0800F5CFE0F0E051000AD8B455EF6C
:1002080005F0640AD8B406D0020AD8B499D70F0A00
:10021800D8A4DFD7070ECD15D8B425D3CDA904D0DF
:10022800000EDF6F060EDE6FC8C0D9FFC9C0DAFF47
:10023800DECFDAF0DECFDBF0DECFDCF0DECFDDF0D4
:10024800040EC827000EC923DDAF15D0DAC02FF081
:10025800DBC030F0DCC031F0DDC032F092EC16F0DB
:100268002FC0DAF030C0DBF031C0DCF032C0DDF096
:10027800030E0001CC13000ED76F000ED66FDA51B3
:10028800DB11DC11DD11D8B483D0DC35DD35820F0C
:10029800D66FD76BFF0ED723D607D8A0D707D6C0FF
:1002A8001BF0D7C01CF0000E1E6E030E1D6EC0ECB6
:1002B80016F01BC0D6F01CC0D7F0D6C021F0D7C0AE
:1002C80022F0000E246E0A0E236EBEEC13F021C03D
:1002D800D6F022C0D7F00001D7AF03D0D607D8A0F8
:1002E800D707D65100085CEC05F054C0CEF055C0D5
:1002F800CFF056C0D0F057C0D1F0CEC048F0CFC034
:1003080049F0D0C04AF0D1C04BF0DAC04CF0DBC0A5
:100318004DF0DCC04EF0DDC04FF084EC07F048C073
:10032800CEF049C0CFF04AC0D0F04BC0D1F0CEC01B
:10033800AAF0CFC0ABF0D0C0ACF0D1C0ADF0000E89
:100348000001AE6F000EAF6F800EB06F3F0EB16F41
:10035800CAEC11F00001D8B004D0D607D8A0D7074E
:1003680017D0CEC0AAF0CFC0ABF0D0C0ACF0D1C08F
:10037800ADF0000EAE6F000EAF6F200EB06F410EE5
:10038800B16FCAEC11F00001D8A002D0D64BD72B20
:10039800DFBF06D0DF5121E10D0EDE5DD8B01DD0E4
:1003A800DAC096F0DBC097F0DCC098F0DDC099F0B9
:1003B800DE51B0EC0DF054C09AF055C09BF056C019
:1003C8009CF057C09DF02DEC09F096C0DAF097C06C
:1003D800DBF098C0DCF099C0DDF00001D7BF06D093
:1003E800D75122E10A0ED65DD8B01ED0DA51DB1102
:1003F800DC11DD11D8B462D0DAC092F0DBC093F022
:10040800DCC094F0DDC095F04FEC13F00001925180
:10041800931194119511D8B4D7BF50D0D75104E196
:10042800020ED65DD8A04AD0CEC0AAF0CFC0ABF09D
:10043800D0C0ACF0D1C0ADF05F0EAE6F700EAF6F34
:10044800890EB06F400EB16FCAEC11F00001D8B040
:1004580002D0F70E01D0F80ED627FF0ED723D651BB
:100468005CEC05F054C0CEF055C0CFF056C0D0F0CB
:1004780057C0D1F0DAC01BF0DBC01CF0DCC01DF0A7
:10048800DDC01EF0CEC01FF0CFC020F0D0C021F0DC
:10049800D1C022F036EC11F01BC0D2F01CC0D3F052
:1004A8001DC0D4F01EC0D5F0000E0001DA6F000E9A
:1004B800DB6F000EDC6F000EDD6F3CD0DAC092F00F
:1004C800DBC093F0DCC094F0DDC095F04FEC13F086
:1004D80092C0D2F093C0D3F094C0D4F095C0D5F0B8
:1004E800DAC0AAF0DBC0ABF0DCC0ACF0DDC0ADF028
:1004F800D2C021F0D3C022F0D4C023F0D5C024F05C
:10050800000EF5EC0FF021C0AEF022C0AFF023C012
:10051800B0F024C0B1F0D5EC15F0AAC0DAF0ABC049
:10052800DBF0ACC0DCF0ADC0DDF0000E0001D76F31
:10053800000ED66F010EE06F0A0EE019D8B418D07D
:10054800E051040D530EF324F66EFF0EF420F76EFF
:100558000900F550D25D0900F550D3590900F5504E
:10056800D4590900F550D559D8A002D0E02BE4D7CA
:10057800E0C0BEF0BF6BBEBFBF07DE51BE27DF5174
:10058800BF23D651BE27D751BF23BE51D85FBF5115
:10059800D95BDE51DF11D8B403D0D807D8A0D9076A
:1005A800030ECC15BE6F000ECD15BF6FBE51BF1127
:1005B800D8B40CD008D0B6C0D9FFB7C0DAFF200E27
:1005C800DF6EB64BB72BD807D8A0D907D9BF05D04F
:1005D800D951F1E1D805D8B0EED7030ECC15BE6FCE
:1005E800000ECD15BF6FBE51BF11D8B450D0B6C0E4
:1005F800D9FFB7C0DAFF2D0E47D0D2C01BF0D3C049
:100608001CF0D4C01DF0D5C01EF0E051040D530EEF
:10061800F324F66EFF0EF420F76E0900F5CF1FF0F5
:100628000900F5CF20F00900F5CF21F00A00F5CF39
:1006380022F041EC14F01BC0CEF01CC0CFF01DC05E
:10064800D0F01EC0D1F0CEC028F0CFC029F0D0C065
:100658002AF0D1C02BF00A0E2C6E000E2D6E000E63
:100668002E6E000E2F6EF2EC14F028C0CEF029C0CA
:10067800CFF02AC0D0F02BC0D1F00001CE51300FFE
:10068800B6C0D9FFB7C0DAFFDF6EB64BB72BE007AD
:10069800E029D8B40CD0B1D7B6C0D9FFB7C0DAFFBB
:1006A800300EDF6EB64BB72BD607D8A0D707D7BF0B
:1006B80005D0D751F1E1D605D8B0EED7DFBF09D0C4
:1006C800DF5104E1090EDE5DD8A003D0080EE06F0B
:1006D80002D0DEC0E0F0E051DE5F000EE0BFFF0EAA
:1006E800DF5BE051D8B408D0B6C0D9FFB7C0DAFF95
:1006F8002E0EDF6EB64BB72BE0515CEC05F054C004
:10070800C2F055C0C3F056C0C4F057C0C5F0DAC037
:100718004CF0DBC04DF0DCC04EF0DDC04FF0C2C085
:1007280048F0C3C049F0C4C04AF0C5C04BF084ECDF
:1007380007F048C092F049C093F04AC094F04BC00B
:1007480095F04FEC13F092C0D2F093C0D3F094C060
:10075800D4F095C0D5F071D0D2C01BF0D3C01CF036
:10076800D4C01DF0D5C01EF00001E051040D530E99
:10077800F324F66EFF0EF420F76E0900F5CF1FF094
:100788000900F5CF20F00900F5CF21F00A00F5CFD8
:1007980022F041EC14F01BC0CEF01CC0CFF01DC0FD
:1007A800D0F01EC0D1F0CEC028F0CFC029F0D0C004
:1007B8002AF0D1C02BF00A0E2C6E000E2D6E000E02
:1007C8002E6E000E2F6EF2EC14F028C0CEF029C069
:1007D800CFF02AC0D0F02BC0D1F00001CE51300F9D
:1007E800B6C0D9FFB7C0DAFFDF6EB64BB72BD2C0A1
:1007F80028F0D3C029F0D4C02AF0D5C02BF0E0519E
:10080800040D530EF324F66EFF0EF420F76E090064
:10081800F5CF2CF00900F5CF2DF00900F5CF2EF01B
:100828000A00F5CF2FF0F2EC14F028C0D2F029C05E
:10083800D3F02AC0D4F02BC0D5F00001E007E0299E
:10084800D8B40CD089D7B6C0D9FFB7C0DAFF300EFC
:10085800DF6EB64BB72BDE07D8A0DF07DE51DF11FE
:10086800D8B412D1F0D7C8C0D9FFC9C0DAFFDECFDB
:10087800D2F0DDCFD3F0000ED3BFFF0ED46FD56F0B
:10088800020EC827000EC923D5AF0AD0030ECC1319
:10089800D51FD41FD31FD26D000ED323D423D52345
:1008A800DE51DF11D8A408D0D251D311D411D511FB
:1008B800D8A402D0DE4BDF2B010EE06F0A0EE01940
:1008C800D8B418D0E051040D530EF324F66EFF0E81
:1008D800F420F76E0900F550D25D0900F550D359A0
:1008E8000900F550D4590900F550D559D8A002D0BF
:1008F800E02BE4D7800EE0BF7F0EBE6FDE51E05DD7
:10090800DF51800ABE59D8B003D0DEC0E0F010D065
:10091800DF51800ABE6FE051DE5D800EE0BF7F0EC2
:10092800BE59D8B005D0E051DE6FDF6BDEBFDF0700
:10093800D851D911D8B40DD0030ECC15BE6F000E06
:10094800CD15BF6FBE51BF11D8B403D0D807D8A0FA
:10095800D907CDAD13D0D851DE5DDF51800ABE6F07
:10096800D951800ABE59D8B005D0DE51D85FDF51C1
:10097800D95B04D0000ED96F000ED86F800EE0BF8F
:100988007F0EBE6FD851E05DD951800ABE59D8B0EC
:1009980007D0E051D85F000EE0BFFF0ED95B04D04E
:1009A800000ED96F000ED86FD851D911D8B40FD016
:1009B800B6C0D9FFB7C0DAFF200EDF6EB64BB72B33
:1009C800D807D8A0D907D851D911D8A4F1D7030E80
:1009D800CC15BE6F000ECD15BF6FBE51BF11D8B478
:1009E8004BD0B6C0D9FFB7C0DAFF2D0EDF6E42D0AC
:1009F800DEC0BEF0DFC0BFF0D890BE37BF37D8909A
:100A0800BE37BF37530EBE25F66EFF0EBF21F76EF9
:100A18000900F5CF1FF00900F5CF20F00900F5CF48
:100A280021F00A00F5CF22F0D2C01BF0D3C01CF091
:100A3800D4C01DF0D5C01EF041EC14F01BC028F046
:100A48001CC029F01DC02AF01EC02BF00A0E2C6E07
:100A5800000E2D6E000E2E6E000E2F6EF2EC14F0AE
:100A68002850300F0001E06FB6C0D9FFB7C0DAFFD9
:100A7800E0C0DFFFB64BB72BDE07D8A0DF07DE29C3
:100A8800B7E1DF29D8A4B4D7B8C0F6FFB9C0F7FFDB
:100A9800B84BB92B0800F5CFE0F0E051D8A410EF1F
:100AA80000F0B6C0D9FFB7C0DAFF000EDF6E120043
:100AB8000001916F000191AF12D1916D9151800A9F
:100AC800120FD8A09AD0000E246E0A0E236E000EC4
:100AD8001E6E640E1D6E91511B6E1C6A1BBE1C0699
:100AE80082EC14F01BC021F01CC022F0BEEC13F005
:100AF800D89021362236D89021362236240E212647
:100B0800000E22221F0E2124F66EFF0E2220F76E01
:100B18000900F5CF4CF00900F5CF4DF00900F5CFED
:100B28004EF00A00F5CF4FF0000E246E640E236ECF
:100B380000019151216E226A21BE2206BEEC13F0FB
:100B4800D89021362236D89021362236480E2126D2
:100B5800000E22221F0E2124F66EFF0E2220F76EB1
:100B68000900F5CF48F00900F5CF49F00900F5CFA5
:100B78004AF00A00F5CF4BF084EC07F048C08DF03E
:100B880049C08EF04AC08FF04BC090F08DC048F03D
:100B98008EC049F08FC04AF090C04BF0000E1E6E18
:100BA8000A0E1D6E000191511B6E1C6A1BBE1C06AD
:100BB80082EC14F0D8901B361C36D8901B361C36A5
:100BC8001F0E1B24F66EFF0E1C20F76E0900F5CFD2
:100BD8004CF00900F5CF4DF00900F5CF4EF00A00B2
:100BE800F5CF4FF084EC07F048C054F049C055F0F9
:100BF8004AC056F04BC057F0120000019151800ACC
:100C0800750FD8A056D0000E246E0A0E236E91518F
:100C1800216E226A21BE2206BEEC13F0D89021363E
:100C28002236D89021362236240E2126000E222282
:100C38001F0E2124F66EFF0E2220F76E0900F5CF55
:100C480048F00900F5CF49F00900F5CF4AF00A004D
:100C5800F5CF4BF0000E1E6E0A0E1D6E000191516D
:100C68001B6E1C6A1BBE1C0682EC14F0D8901B3647
:100C78001C36D8901B361C361F0E1B24F66EFF0E32
:100C88001C20F76E0900F5CF4CF00900F5CF4DF0A8
:100C98000900F5CF4EF00A00F5CF4FF084EC07F0CD
:100CA80048C054F049C055F04AC056F04BC057F000
:100CB800120000019151040D1F0EF324F66EFF0E71
:100CC800F420F76E0900F5CF54F00900F5CF55F080
:100CD8000900F5CF56F00A00F5CF57F012009151F0
:100CE800800A120FD8A09AD0000E246E0A0E236E26
:100CF800000E1E6E640E1D6E91511B6E1C6A1BBE8B
:100D08001C0682EC14F01BC021F01CC022F0BEECC3
:100D180013F0D89021362236D89021362236240E68
:100D28002126000E2222EB0E2124F66EFE0E222032
:100D3800F76E0900F5CF4CF00900F5CF4DF009002A
:100D4800F5CF4EF00A00F5CF4FF0000E246E640E7A
:100D5800236E00019151216E226A21BE2206BEEC4B
:100D680013F0D89021362236D89021362236480EF4
:100D78002126000E2222EB0E2124F66EFE0E2220E2
:100D8800F76E0900F5CF48F00900F5CF49F00900E2
:100D9800F5CF4AF00A00F5CF4BF084EC07F048C0D5
:100DA8008DF049C08EF04AC08FF04BC090F08DC0D6
:100DB80048F08EC049F08FC04AF090C04BF0000E4A
:100DC8001E6E0A0E1D6E000191511B6E1C6A1BBE21
:100DD8001C0682EC14F0D8901B361C36D8901B36B3
:100DE8001C36EB0E1B24F66EFE0E1C20F76E090057
:100DF800F5CF4CF00900F5CF4DF00900F5CF4EF0D6
:100E08000A00F5CF4FF084EC07F048C054F049C011
:100E180055F04AC056F04BC057F0120000019151EE
:100E2800800A750FD8A056D0000E246E0A0E236EC5
:100E38009151216E226A21BE2206BEEC13F0D89091
:100E480021362236D89021362236240E2126000E4D
:100E58002222EB0E2124F66EFE0E2220F76E0900E8
:100E6800F5CF48F00900F5CF49F00900F5CF4AF071
:100E78000A00F5CF4BF0000E1E6E0A0E1D6E000123
:100E880091511B6E1C6A1BBE1C0682EC14F0D89094
:100E98001B361C36D8901B361C36EB0E1B24F66E00
:100EA800FE0E1C20F76E0900F5CF4CF00900F5CFB7
:100EB8004DF00900F5CF4EF00A00F5CF4FF084EC65
:100EC80007F048C054F049C055F04AC056F04BC02E
:100ED80057F0120000019151040DEB0EF324F66E49
:100EE800FE0EF420F76E0900F5CF54F00900F5CF97
:100EF80055F00900F5CF56F00A00F5CF57F012006B
:100F08004B50800B0001806F4B504B24866F4ABEBC
:100F180086818651D8B40DD08629D8A408D0000E71
:100F2800486E000E496E000E4A6E000E4B6E4A8ED9
:100F380008D0000E486E000E496E000E4A6E000E74
:100F48004B6E4F50800B801B4F504F24816F4EBE0D
:100F580081818151D8B40DD08129D8A408D0000E40
:100F68004C6E000E4D6E000E4E6E000E4F6E4E8E85
:100F780008D0000E4C6E000E4D6E000E4E6E000E28
:100F88004F6E8151D8B403D08651D8A409D0000E31
:100F9800486E000E496E000E4A6E000E4B6E12002F
:100FA8004E504802F3CF8BF0F4CF8CF08B51826F08
:100FB800836B846B856B8C51876F886B896B8A6BAD
:100FC8004D504902F3CF8BF0F4CF8CF08B51822730
:100FD800000E8323842385238C518727000E8823C2
:100FE80089238A234C504A02F3CF8BF0F4CF8CF03C
:100FF8008B518227000E8323842385238C518727D6
:10100800000E882389238A2384C085F083C084F056
:1010180082C083F0826B4C504902F3CF8BF0F4CF3F
:101028008CF08B5182278C518323000E8423000E71
:1010380085234D504802F3CF8BF0F4CF8CF08B51C1
:1010480082278C518323000E8423000E852384C0BD
:1010580085F083C084F082C083F0826B4C504802D4
:10106800F3CF8BF0F4CF8CF08B5182278C518323F4
:10107800000E8423000E85234E504902F3CF8BF0D7
:10108800F4CF8CF08B5187278C518823000E89234D
:10109800000E8A234D504A02F3CF8BF0F4CF8CF028
:1010A8008B5187278C518823000E8923000E8A23B1
:1010B8004E504A02F3CF8BF0F4CF8CF08B51506E28
:1010C8008C51516E526A536A52C053F051C052F05B
:1010D80050C051F0506A50508727515088235250C1
:1010E800892353508A2382C050F083C051F084C0B2
:1010F80052F085C053F0190E05D0D89053325232B1
:1011080051325032E82EF9D7505087275150882352
:101118005250892353508A2384C085F083C084F0B9
:1011280082C083F0826B815186C050F0516A50268C
:10113800000E5122820E50248B6FFF0E51208C6FAF
:101148000FD0D8908737883789378A3785BF878106
:10115800D89082378337843785378B07D8A08C0798
:1011680089AFEFD7000E816F85AF16D0FF0E8215BD
:10117800506EFF0E8315516EFF0E8415526E7F0E52
:101188008515536E5050511052105310D8A402D0E8
:1011980087A102D0010E816F8151D8B41FD0010EF2
:1011A8008727000E882389238A238AA117D087C01E
:1011B80050F088C051F089C052F08AC053F05334BF
:1011C800533252325132503250C087F051C088F0F9
:1011D80052C089F053C08AF08B4B8C2B8CBF0DD03A
:1011E8008C5103E18B29D8A008D0000E876F000E20
:1011F800886F800E896F7F0E20D08CBF05D08C51F0
:101208000EE18B05D8B00BD0000E876F000E886FEB
:10121800000E896F000E8A6F000E806F0FD08BC092
:1012280086F0FF0E8717FF0E88177F0E8917000EAE
:101238008A1786B1898FD89086318A6F80518A1330
:1012480087C048F088C049F089C04AF08AC04BF08E
:10125800120000019951800BA66F99519925A86F2A
:1012680098BFA881A851D8B40DD0A829D8A408D06F
:10127800000E966F000E976F000E986F000E996F14
:10128800988F06D0000E966F000E976F000E986F1D
:10129800000E996F9D51800BA76FA651A719D8A46E
:1012A800A68D9D519D25A76F9CBFA781A751D8B436
:1012B8000DD0A729D8A408D0000E9A6F000E9B6FF6
:1012C800000E9C6F000E9D6F9C8F06D0000E9A6FCB
:1012D800000E9B6F000E9C6F000E9D6FA851A75DBE
:1012E800D8B022D0A6AD02D0800EA61BA8C0A9F007
:1012F800A7C0A8F0A9C0A7F096C0A9F09AC096F018
:10130800A9C09AF097C0A9F09BC097F0A9C09BF01C
:1013180098C0A9F09CC098F0A9C09CF099C0A9F009
:101328009DC099F0A9C09DF0000EA96FA8519E6FAD
:101338009F6B9E1F9F1F9E4B9F2BA751A06FA16B5A
:101348009E51A0279F51A123A1BF2CD0A15104E1F8
:101358001A0EA05DD8A026D0965197119811991110
:10136800D8B402D0010E01D0000EA96F000E966FFE
:10137800000E976F000E986F000E996FA7C0A8F027
:1013880015D0A9A105D0D890A9310109A96F02D01B
:10139800D890A93396B1A98F993599339833973353
:1013A8009633A82BA751A85DD8A0EBD7A6BD29D006
:1013B800A851D8A409D0000E966F000E976F000EA2
:1013C800986F000E996F12009A5196279B51972398
:1013D8009C5198239D51992399A183D0A9A106D006
:1013E800D890A933A9510109A96F02D0D890A9337F
:1013F80096B1A98F99359933983397339633A82B9B
:1014080070D09A51965D9B5197599C519859995112
:10141800800A9E6F9D51800A9E59D8B036D096C0DA
:101428009EF097C09FF098C0A0F099C0A1F09E1FB1
:101438009F1FA01FA11F9E2B000E9F23A023A12347
:101448009A519E25A26F9B519F21A36F9C51A02169
:10145800A46F9D51A121A56FFF0EA225966FFF0EC7
:10146800A321976FFF0EA421986FFF0EA521996FF6
:10147800800EA61BA96DA951D8A40FD0010E9627DE
:10148800000E97239823992308D09A51965F9B5171
:10149800975B9C51985B9D51995B96519711981158
:1014A8009911D8A41CD0A951D8A419D0000E966FB0
:1014B800000E976F000E986F000E996F1200D8906B
:1014C8009637973798379937A9BF9681A9A102D03F
:1014D800D88001D0D890A937A851D8A4A80798AF28
:1014E800EED7000EA76FA9AF0AD0A9C09EF07F0E55
:1014F8009E17D8A402D096A102D0010EA76FA751BB
:10150800D8B420D0010E9627000E9723982399234C
:1015180099A118D096C09EF097C09FF098C0A0F0EF
:1015280099C0A1F0A135A133A0339F339E339EC04B
:1015380096F09FC097F0A0C098F0A1C099F0A82994
:10154800D8A4A82BA829D8B403D0A851D8A40DD0C2
:10155800000E966F000E976F000E986F000E996F31
:10156800A851D8A402D0000EA66FA8A102D0988FC7
:1015780001D0989FD890A831996FA6BF998F96C02F
:1015880096F097C097F098C098F099C099F012001B
:101598007BD181B61200000E1C6EFA0E1B6ED3ECC6
:1015A80016F081B61200000E1C6E000E1B6E7BEC4E
:1015B80016F08294000E0101A26F000EA36F000EB8
:1015C800A46F000EA56FA0901200000E336E000EDF
:1015D800346EA00E356E400E366EEAC02FF0EBC0AA
:1015E80030F0ECC031F0EDC032F056EC0CF02FC00A
:1015F80048F030C049F031C04AF032C04BF0000E1C
:101608004C6E000E4D6EC80E4E6E420E4F6E84EC40
:1016180007F048C0A2F149C0A3F14AC0A4F14BC0E9
:10162800A5F1010E5EEC16F01BC0FAF01CC0FBF031
:10163800FAC01BF0FBC01CF07BEC16F01200000E89
:10164800336E000E346EA00E356E400E366EEAC054
:101658002FF0EBC030F0ECC031F0EDC032F056ECBA
:101668000CF02FC048F030C049F031C04AF032C009
:101678004BF0000E4C6E000E4D6EC80E4E6E420EB4
:101688004F6E84EC07F048C0A2F149C0A3F14AC0EC
:10169800A4F14BC0A5F11200F2C02FF0F3C030F056
:1016A800F4C031F0F5C032F092EC16F02FC096F08D
:1016B80030C097F031C098F032C099F0F6C09AF077
:1016C800F7C09BF0F8C09CF0F9C09DF02DEC09F034
:1016D80096C0B6F097C0B7F098C0B8F099C0B9F006
:1016E800000E0001AA6F000EAB6F000EAC6F000E6B
:1016F800AD6FB6C0AEF0B7C0AFF0B8C0B0F0B9C00B
:10170800B1F0CAEC11F00001D8B073D0B6C048F0FF
:10171800B7C049F0B8C04AF0B9C04BF0000E4C6EE3
:10172800000E4D6E200E4E6E410E4F6E84EC07F08B
:1017380048C0BAF049C0BBF04AC0BCF04BC0BDF0CD
:10174800BAC0AAF0BBC0ABF0BCC0ACF0BDC0ADF035
:10175800000E0001AE6F000EAF6FC80EB06F410EE5
:10176800B16FCAEC11F00001D8B008D0000EBA6F02
:10177800000EBB6FC80EBC6F410EBD6F000E336EFE
:10178800000E346EC80E356E420E366E000E4C6E6C
:10179800C00E4D6E7F0E4E6E440E4F6EBAC048F0AE
:1017A800BBC049F0BCC04AF0BDC04BF084EC07F0A8
:1017B80048C02FF049C030F04AC031F04BC032F079
:1017C80056EC0CF02FC092F030C093F031C094F07A
:1017D80032C095F04FEC13F092C0FAF093C0FBF0D2
:1017E800FAC01BF0FBC01CF07BEC16F0829AA090AC
:1017F8001200F6C0AAF0F7C0ABF0F8C0ACF0F9C020
:10180800ADF0F2C09AF0F3C09BF0F4C09CF0F5C0C4
:101818009DF05F50216E226A236A246A000EF5EC5F
:101828000FF021C02FF022C030F023C031F024C0C7
:1018380032F092EC16F02FC096F030C097F031C01D
:1018480098F032C099F02DEC09F096C0AEF097C030
:10185800AFF098C0B0F099C0B1F0CAEC11F0000137
:10186800D8B01200000E1C6E000E1B6E7BEC16F03A
:101878008294000E0101A26F000EA36F480EA46FA0
:10188800420EA56FA08012005E50000AD8B481D61F
:10189800010AD8B49AD6030AD8B4D1D6010AD8A472
:1018A8001200FAD63250800B3B6E32503224466E0C
:1018B80031BE46804650D8B40DD04628D8A408D0AA
:1018C800000E2F6E000E306E000E316E000E326E5E
:1018D800318E06D0000E2F6E000E306E000E316E67
:1018E800000E326E3650800B3B1A36503624476E47
:1018F80035BE47804750D8B40DD04728D8A408D063
:10190800000E336E000E346E000E356E000E366E0D
:10191800358E06D0000E336E000E346E000E356E16
:10192800000E366E3350341035103610D8A415D04A
:10193800000E2F6E000E306E000E316E000E326EED
:10194800800E31127F0E32122FC02FF030C030F0CF
:1019580031C031F032C032F012004650D8A411D054
:10196800000E2F6E000E306E000E316E000E326EBD
:101978002FC02FF030C030F031C031F032C032F01B
:1019880012004750376E386A371E381E374A382AD1
:101998004650396E3A6A3750392638503A227F0E07
:1019A8003924406E000E3A20416E2FC03CF030C002
:1019B8003DF031C03EF032C03FF0000E2F6E000EF9
:1019C800306E000E316E000E326E000E426E000E4A
:1019D800436E000E446E000E456E000E476E28D012
:1019E8004750D8B411D0D8903C363D363E363F36B5
:1019F800D8902F3630363136323645BE2F80D890C3
:101A0800423643364436453633503C5C34503D58B4
:101A180035503E5836503F58D8A009D0458C3350E1
:101A28003C5E34503D5A35503E5A36503F5A472A4C
:101A3800190E4764D5D73C503D103E103F10D8B41E
:101A480011D042800FD0D8902F363036313632360A
:101A580045BE2F80D8904236433644364536400638
:101A6800D8A0410631AEEFD7000E476E45AE16D06E
:101A7800FF0E4214376EFF0E4314386EFF0E4414E7
:101A8800396E7F0E45143A6E3750381039103A10B7
:101A9800D8A402D02FA002D0010E476E4750D8B468
:101AA8001FD0010E2F26000E30223122322232A002
:101AB80017D02FC037F030C038F031C039F032C0FD
:101AC8003AF03A343A3239323832373237C02FF0B6
:101AD80038C030F039C031F03AC032F0404A412ABB
:101AE80041BE10D0415003E14028D8A00BD0000ED1
:101AF800416E4068000E2F6E000E306E000E316E83
:101B0800000E326E41BE05D0415011E14004D8B0FC
:101B18000ED0000E416E000E406E000E2F6E000EAD
:101B2800306E000E316E000E326E000E3B6E40C0FD
:101B380046F046A002D0318E01D0319ED890463072
:101B4800326E3B5032122FC02FF030C030F031C00F
:101B580031F032C032F012000001956F6D0E0001B5
:101B68009565ACD0000E246E0A0E236E000E1E6E14
:101B7800640E1D6E95C01BF01C6A82EC14F01BC02D
:101B880021F01CC022F0BEEC13F0D890213622368A
:101B9800D89021362236240E2126000E22221F0E2E
:101BA8002124F66EFF0E2220F76E0900F5CF4CF0C7
:101BB8000900F5CF4DF00900F5CF4EF00A00F5CF3A
:101BC8004FF0000E246E640E236E95C021F0226A39
:101BD800BEEC13F0D89021362236D8902136223622
:101BE800480E2126000E22221F0E2124F66EFF0E1B
:101BF8002220F76E0900F5CF48F00900F5CF49F02B
:101C08000900F5CF4AF00A00F5CF4BF084EC07F055
:101C180048C091F049C092F04AC093F04BC094F08C
:101C2800000E1E6E0A0E1D6E95C01BF01C6A82EC1B
:101C380014F0D8901B361C36D8901B361C361F0E55
:101C48001B24F66EFF0E1C20F76E0900F5CF4CF032
:101C58000900F5CF4DF00900F5CF4EF00A00F5CF99
:101C68004FF091C048F092C049F093C04AF094C038
:101C78004BF084EC07F048C08DF049C08EF04AC0A4
:101C88008FF04BC090F08DC048F08EC049F08FC0E7
:101C98004AF090C04BF0000E4C6E000E4D6E000ED8
:101CA8004E6E3F0E4F6E84EC07F048C054F049C0AA
:101CB80055F04AC056F04BC057F012000A0E00010A
:101CC80095656BD0000E1E6E0A0E1D6E95C01BF03A
:101CD8001C6A82EC14F0D8901B361C36D8901B3640
:101CE8001C361F0E1B24F66EFF0E1C20F76E090013
:101CF800F5CF4CF00900F5CF4DF00900F5CF4EF0C7
:101D08000A00F5CF4FF0000E246E0A0E236E95C020
:101D180021F0226ABEEC13F0D89021362236D890F2
:101D280021362236240E2126000E22221F0E2124BF
:101D3800F66EFF0E2220F76E0900F5CF48F0090075
:101D4800F5CF49F00900F5CF4AF00A00F5CF4BF07E
:101D580084EC07F048C091F049C092F04AC093F073
:101D68004BC094F091C048F092C049F093C04AF03B
:101D780094C04BF0000E4C6E000E4D6E000E4E6E71
:101D88003F0E4F6E84EC07F048C054F049C055F040
:101D98004AC056F04BC057F0120000019551040D8F
:101DA8001F0EF324F66EFF0EF420F76E0900F5CF30
:101DB80048F00900F5CF49F00900F5CF4AF00A00CC
:101DC800F5CF4BF0000E4C6E000E4D6E000E4E6EB1
:101DD8003F0E4F6E84EC07F048C054F049C055F0F0
:101DE8004AC056F04BC057F012003CD0000E00011C
:101DF800B66F010EB76F7B0EB86FFF0EB96F09ECA7
:101E080000F04E0E2CD0000E0001B66F010EB76F19
:101E1800900EB86FFF0EB96F09EC00F04E0E01017D
:101E2800816F590E0ED0000E0001B66F010EB76F0C
:101E3800A50EB86FFF0EB96F09EC00F0590E0FD060
:101E48004E0E806F1CD0000E0001B66F010EB76FEA
:101E5800BA0EB86FFF0EB96F09EC00F0D2D70101C6
:101E6800816FEED75E50000AD8B4C0D7010AD8B443
:101E7800CAD7030AD8B4D7D7010AD8B4E4D7010E11
:101E8800256E010E1DEC16F0400E0001B66F010E16
:101E9800B76FE50EB86FFF0EB96FF6C0BAF0F7C0AE
:101EA800BBF0F8C0BCF0F9C0BDF009EC00F0400E82
:101EB800296E010E2A6E56EC15F0010E256E0E0ED7
:101EC8001DEC16F0FB0E296EFF0E2A6E56EC15F06F
:101ED800020E256E010E1DEC16F0400E0001B66FC5
:101EE800010EB76FCD0EB86FFF0EB96FF2C0BAF022
:101EF800F3C0BBF0F4C0BCF0F5C0BDF009EC00F0D5
:101F0800400E296E010E2A6E56EC15F0020E256E53
:101F18000E0E1DEC16F00101815181EC15F0020E38
:101F2800256E100E1DEC16F00101805181EC15F0A4
:101F3800030E256E010E1DEC16F0400E0001B66F63
:101F4800010EB76FF00EB86FFF0EB96F5FC0BAF031
:101F5800BB6B09EC00F0400E296E010E2A6E56ECA0
:101F680015F0030E256E080E1DEC16F0400E00014C
:101F7800B66F010EB76FD90EB86FFF0EB96FA2C159
:101F8800BAF0A3C1BBF0A4C1BCF0A5C1BDF009EC77
:101F980000F0400E296E010E2A6E56EC15F0040E64
:101FA800256E010E1DEC16F0400E0001B66F010EF5
:101FB800B76FF70EB86FFF0EB96F09EC00F0400E5F
:101FC800296E010E2A6E56EC15F0040E256E050ECC
:101FD8001DEC16F0000E296E010E2A6E56EC15F057
:101FE8001200296E2950D8A424AE1AD021C025F099
:101FF80022C026F023C027F024C028F0251E261E64
:10200800271E281E252A000E26222722282225C020
:102018002BF026C02CF027C02DF028C02EF008D0B9
:1020280021C02BF022C02CF023C02DF024C02EF0AC
:102038002150221023102410D8A409D0000E216E9C
:10204800000E226E000E236E000E246E1200960EF5
:102058002A6E06D02A2AD8902E322D322C322B32D4
:10206800000E2B14256E000E2C14266E000E2D1457
:10207800276EFE0E2E14286E2550261027102810C5
:10208800D8B40DD0E7D72A2A010E2B26000E2C2211
:102098002D222E22D8902E322D322C322B32000EA9
:1020A8002B14256E000E2C14266E000E2D14276E90
:1020B800FF0E2E14286E2550261027102810D8B48D
:1020C80007D0E1D72A06D8902B362C362D362E3657
:1020D8002DBE03D0020E2A60F5D72AB008D0FF0E15
:1020E8002B16FF0E2C167F0E2D16FF0E2E16D890CF
:1020F8002A322AC025F0266A276A286A25C028F0CD
:10210800276A266A256A25502B1226502C1227503A
:102118002D1228502E122950D8A424AE01D02E8E6C
:102128002BC021F02CC022F02DC023F02EC024F0AB
:1021380012001DC023F0246A256A1C34233601E3EB
:10214800248023502B6E2B50D8A409D0000E1B6E70
:10215800000E1C6E000E1D6E000E1E6E120021C0B9
:1021680023F0246A256A2034233601E3248023508F
:102178002A6E2A50D8A409D0000E1B6E000E1C6EC1
:10218800000E1D6E000E1E6E12001C8EFF0E1B161A
:10219800FF0E1C16000E1D16208EFF0E1F16FF0EBA
:1021A8002016000E2116000E266E000E276E000E59
:1021B800286E000E296E7F0E2B5E2A50980F2B5E1C
:1021C800180E2A6ED89026362736283629361F50FC
:1021D8001B5C20501C5821501D58D8A007D01F50F8
:1021E8001B5E20501C5A21501D5A2680D8901B3641
:1021F8001C361D362A2EE6D72BAE16D02B50800A59
:10220800970FD8B009D0000E1B6E000E1C6E000E82
:102218001D6E000E1E6E1200D89029322832273209
:1022280026322B3EF9D715D0170E2B640FD0000E8F
:102238001B6E000E1C6E000E1D6E000E1E6E120030
:10224800D89026362736283629362B062B50D8A480
:10225800F7D726C01BF027C01CF028C01DF029C0E6
:102268001EF012001D341E34286E2850D8A409D040
:10227800000E1B6E000E1C6E000E1D6E000E1E6EF4
:10228800120021342234276E2750D8A409D0000E1A
:102298001B6E000E1C6E000E1D6E000E1E6E1200D0
:1022A8001D8EFF0E1B16FF0E1C16FF0E1D16000EB0
:1022B8001E16218EFF0E1F16FF0E2016FF0E21166A
:1022C800000E2216000E236E000E246E000E256EE0
:1022D800000E266E7F0E285E2750A00F285E200E67
:1022E800276ED89023362436253626361F501B5C99
:1022F80020501C5821501D5822501E58D8A009D0D3
:102308001F501B5E20501C5A21501D5A22501E5A25
:102318002380D8901B361C361D361E36272EE1D753
:1023280028AE16D02850800A9F0FD8B009D0000ECA
:102338001B6E000E1C6E000E1D6E000E1E6E12002F
:10234800D8902632253224322332283EF9D715D0A8
:102358001F0E28640FD0000E1B6E000E1C6E000EA0
:102368001D6E000E1E6E1200D890233624362536B8
:10237800263628062850D8A4F7D723C01BF024C037
:102388001CF025C01DF026C01EF01200000E000132
:10239800AA15B26F000EAB15B36F800EAC15B46FF3
:1023A8007F0EAD15B56FB251B311B411B511D8A4E4
:1023B80008D0000EAA6F000EAB6F000EAC6F000EB7
:1023C800AD6F000EAE15B26F000EAF15B36F800E75
:1023D800B015B46F7F0EB115B56FB251B311B4110A
:1023E800B511D8A408D0000EAE6F000EAF6F000E66
:1023F800B06F000EB16FADAF1DD0AAC0B2F0ABC0C8
:10240800B3F0ACC0B4F0ADC0B5F0B21FB31FB41F89
:10241800B51FB22B000EB323B423B523000EB2258B
:10242800AA6F000EB321AB6F000EB421AC6F800E03
:10243800B521AD6FB1AF1DD0AEC0B2F0AFC0B3F033
:10244800B0C0B4F0B1C0B5F0B21FB31FB41FB51F10
:10245800B22B000EB323B423B523000EB225AE6F02
:10246800000EB321AF6F000EB421B06F800EB521FE
:10247800B16F000EAA1B000EAB1B000EAC1B800E2A
:10248800AD1B000EAE1B000EAF1B000EB01B800E66
:10249800B11BAE51AA5DAF51AB59B051AC59B15156
:1024A800AD59D8B002D0D8901200D88012000600DA
:1024B800FACF09F0FBCF0AF0E9CF0BF0EACF0CF026
:1024C800E1CF0DF0E2CF0EF0D9CF0FF0DACF10F058
:1024D800F3CF11F0F4CF12F0F6CF13F0F7CF14F0DA
:1024E800F8CF15F0F5CF16F064C017F065C018F0F6
:1024F80066C019F067C01AF0F2A211D0020E086E79
:10250800450E076EAA0EE82EFED7072EFCD7082E1A
:10251800FAD7F2A204D05E28030B5E6EF292F0A204
:102528001CD0020E086E450E076EAA0EE82EFED7C6
:10253800072EFCD7082EFAD7F0A20FD0010E5F2481
:10254800016E026A000E0222000E046E050E036E72
:10255800BAEC14F001505F6EF092A1B2A1921AC0C9
:1025680067F019C066F018C065F017C064F016C0AF
:10257800F5FF15C0F8FF14C0F7FF13C0F6FF12C02F
:10258800F4FF11C0F3FF10C0DAFF0FC0D9FF0EC06F
:10259800E2FF0DC0E1FF0CC0EAFF0BC0E9FF0AC073
:1025A800FBFF09C0FAFF64921100F7EC16F03EEC4D
:1025B80016F025EC15F021EC17F015EC17F00C0EC1
:1025C80081EC15F0000E5E6E000E5F6E0400000ECA
:1025D8001C6EC80E1B6ED3EC16F0000E0001E56FE2
:1025E800020EE56501D01ED0E55100EC14F048C09C
:1025F800E1F049C0E2F04AC0E3F04BC0E4F000016A
:10260800E551040DE60EF324D96E000EF420DA6EBF
:10261800E1C0DEFFE2C0DEFFE3C0DEFFE4C0DEFFB4
:10262800E52BDED7E6C048F0E7C049F0E8C04AF03D
:10263800E9C04BF0000E4C6E000E4D6EA00E4E6EB3
:10264800410E4F6E84EC07F048C0F2F049C0F3F039
:102658004AC0F4F04BC0F5F0EEC048F0EFC049F0C6
:10266800F0C04AF0F1C04BF0000E4C6E000E4D6EFB
:10267800C80E4E6E420E4F6E84EC07F048C0F6F05E
:1026880049C0F7F04AC0F8F04BC0F9F0CCEC0AF0BA
:10269800F9EC0EF09BD70001943595359B6F9B5153
:1026A800D8A409D0000E926F000E936F000E946F9D
:1026B800000E956F120092C096F093C097F094C0E8
:1026C80098F095C099F0200E05D0D890993398339A
:1026D80097339633E82EF9D796519A6F948FFF0E59
:1026E8009217FF0E9317FF0E9417000E9517960E6C
:1026F8009B5F9BAF16D09B51800A970FD8B009D02B
:10270800000E926F000E936F000E946F000E956F7F
:102718001200D89095339433933392339B3FF9D773
:1027280015D01F0E9B650FD0000E926F000E936F91
:10273800000E946F000E956F1200D8909237933761
:10274800943795379B079B51D8A4F7D79A51D8B49B
:1027580008D0951F941F931F926D000E9323942306
:10276800952392C092F093C093F094C094F095C0D2
:1027780095F01200000E266E24AE06D0236C241E9F
:10278800D8B0242A010E266E22AE06D0216C221E55
:10279800D8B0222A010E261A000E286E000E276EC7
:1027A80023502410D8B41CD0010E256E04D0D89024
:1027B80023362436252A24AEFAD7D8902736283649
:1027C8002350215C24502258D8A005D02350215EE4
:1027D8002450225A2780D89024322332252EEDD730
:1027E8002650D8B404D0276C281ED8B0282A27C071
:1027F80021F028C022F01200526E52505EEC16F002
:102808001BC050F01CC051F050C01BF051C01CF050
:10281800000E1E6E050E1D6EC0EC16F01BC021F0DA
:102828001CC022F0000E22BEFF0E236E246E010E85
:10283800F5EC0FF021C02FF022C030F023C031F0AA
:1028480024C032F0000E336EC00E346E7F0E356E2B
:10285800440E366E56EC0CF02FC04CF030C04DF0E4
:1028680031C04EF032C04FF04CC048F04DC049F076
:102878004EC04AF04FC04BF01200000E236E000EFF
:10288800246E000E256E000E266E1F50201021109B
:102898002210D8B42AD0010E276E06D0D8901F3641
:1028A800203621362236272A22AEF8D7D89023366A
:1028B8002436253626361F501B5C20501C582150C4
:1028C8001D5822501E58D8A009D01F501B5E2050FA
:1028D8001C5A21501D5A22501E5A2380D890223249
:1028E800213220321F32272EE1D723C01BF024C00B
:1028F8001CF025C01DF026C01EF01200000E206E30
:102908001CAE06D01B6C1C1ED8B01C2A010E206EF3
:102918001EAE04D01D6C1E1ED8B01E2A1D501E10DF
:10292800D8B418D0010E1F6E04D0D8901D361E36AC
:102938001F2A1EAEFAD71D501B5C1E501C58D8A06B
:1029480004D01D501B5E1E501C5AD8901E321D32DA
:102958001F2EF1D72050D8B404D01B6C1C1ED8B041
:102968001C2A1BC01BF01CC01CF01200000E066EB7
:1029780002AE06D0016C021ED8B0022A010E066E05
:1029880004AE04D0036C041ED8B0042A035004100B
:10299800D8B418D0010E056E04D0D890033604368A
:1029A800052A04AEFAD70350015C04500258D8A097
:1029B80004D00350015E0450025AD8900432033206
:1029C800052EF1D70650D8B404D0016C021ED8B039
:1029D800022A01C001F002C002F012002C502D1092
:1029E8002E102F10D8B424D0010E306E06D0D890F7
:1029F8002C362D362E362F36302A2FAEF8D72C50BF
:102A0800285C2D5029582E502A582F502B58D8A0C2
:102A180008D02C50285E2D50295A2E502A5A2F5053
:102A28002B5AD8902F322E322D322C32302EE7D717
:102A380028C028F029C029F02AC02AF02BC02BF082
:102A4800120084948492000E1C6E190E1B6ED3EC37
:102A580016F0010E256E030E256401D00BD0030E6F
:102A6800E6EC16F0000E1C6E060E1B6ED3EC16F08C
:102A7800252AF1D7020EE6EC16F0000E256E030E9D
:102A8800256401D012002550010D600EF324D96E83
:102A9800000EF420DA6EDF50236E000EF9EC15F00C
:102AA800252AEDD715D029C0F6FF2AC0F7FF000E5A
:102AB800F86E0F0EF76403D00800F55005D0F6CF76
:102AC800E1FFF7CFE2FFE75081EC15F0294A2A2A07
:102AD80029C0F6FF2AC0F7FF000EF86E0F0EF76444
:102AE80003D00800F55005D0F6CFE1FFF7CFE2FF9D
:102AF800E7500009D8B41200D6D7286E1ED0010EB0
:102B0800236E000EF9EC15F0000E1C6E020E1B6E03
:102B1800D3EC16F01200020E256E010E1DEC16F015
:102B28001200100E236E000EF9EC15F0120028C0EA
:102B380023F0010EF9EC15F012002850080AD8B459
:102B4800F0D7020AD8B4E7D7060AD8B4D8D7EFD74F
:102B58004E0EF66E2E0EF76E000EF86E00EE60F05A
:102B680010EE04F00900F5CFEEFFE550E150FAE170
:102B780001EE82F0240EEE6AE806FDE100EEE6F0D2
:102B8800160EEE6AE806FDE100EE58F0080EEE6A51
:102B9800E806FDE164906492000EF86E0001D9EF3A
:102BA80012F0000E0001AE1B000EAF1B000EB01B92
:102BB800800EB11BAAC096F0ABC097F0ACC098F0DD
:102BC800ADC099F0AEC09AF0AFC09BF0B0C09CF019
:102BD800B1C09DF02DEC09F096C0AAF097C0ABF0FB
:102BE80098C0ACF099C0ADF01200246E24B002D0A9
:102BF800849401D08484010EA9EC16F0010EA9EC8E
:102C080016F0849223380F0BE6EC16F023500F0BC6
:102C1800E6EC16F02450D8B405D0320E0400E82EA5
:102C2800FDD71200000E1C6E020E1B6ED3EC16F0C0
:102C38001200266E09D0800E05D0C00E03D0900E6B
:102C480001D0D00E276E0DD02550010AD8B4F3D785
:102C5800030AD8B4F2D7010AD8B4F1D7070AD8B40E
:102C6800F0D72604272627508009236E000EF9EC9A
:102C780015F01200000EF26ED09EF292F092A19220
:102C8800F288F088000EB16EB180000EF16EF18806
:102C9800F18C000E9D6E000E9E6E000E9F6E000E53
:102CA800A06E000EA06E000EA16E000EA26EA08097
:102CB800F28E1200216E21C01DF01D461D46C25025
:102CC8001D18C30B1D18C26EC282C2B2FED7C350F4
:102CD800C4CF1DF01E6A1DC01EF01D6A1D101F6E98
:102CE8001E50206E1FC01BF020C01CF012001BC01D
:102CF8001DF01CC01EF0D8901E321D32D8901E3216
:102D08001D321D50BE6E1BC01DF0030E1D161D3A50
:102D1800BD501D18CF0B1D18BD6E12002F5030105E
:102D280031103210D8B408D0000E2F1A000E301A05
:102D3800000E311A800E321A2FC02FF030C030F03A
:102D480031C031F032C032F012001E6E000E206E1B
:102D5800000E1F6E03D004001F4A202A1E501B6E4F
:102D68001C6A1F501B5C1C50800A1D6E2050800A74
:102D78001D58D8A01200EFD71B501D02F3CF1FF02B
:102D8800F4CF20F01B501E02F35020261C501D02C9
:102D9800F35020261FC01BF020C01CF01200000EAC
:102DA8001E6E000E1D6E07D0C80E04000400E82E2B
:102DB800FCD71D4A1E2A1D501B5C1E501C58D8A04B
:102DC8001200F2D7226E22C021F0213A8350211836
:102DD8000F0B2118836E010EA9EC16F084820400F3
:102DE80000F084921200000EF16E000EC26E0C0EFE
:102DF800C16E9368800E946E9268000E956E000EF8
:102E0800966E12001D6E000E1C6E3A0E1D6005D0E7
:102E18002F0E1D6402D0010E1C6E1CC01BF01B304F
:102E28001200CB68000ECA6ECA50FC0B0209CA6EAB
:102E38000C0EBD6ECA8494941200000EC26EC2803D
:0A2E4800890EC06E1200280C01066E
:10FEEA00000000803F000020410000C84200007A64
:10FEFA004400401C460050C34700247449809618A9
:10FF0A004B20BCBE4C286B6E4EF9021550EC78ADF6
:10FF1A0060CAF249710000803FCDCCCC3D0AD7239C
:10FF2A003C6F12833A17B7D138ACC52737BD37862D
:10FF3A003595BFD63377CC2B325F708930FFE6DB3D
:10FF4A002E08E53C1E6042A20D010000000A0000D6
:10FF5A000064000000E803000010270000A08601EA
:10FF6A000040420F008096980000E1F50500CA9A09
:10FF7A003B4F4646202020202020202020202020E1
:10FF8A00202020202000436F6F6C2020202020207A
:10FF9A002020202020202020202000486561742075
:10FFAA002020202020202020202020202020200067
:10FFBA004175746F20436F6F6C2020202020202011
:10FFCA0020200053503A2025342E31664320004821
:10FFDA00433A2025342E316625250052543A2025ED
:10FFEA00342E3166430048533A202564004D443A82
:06FFFA0000482043000056
:020000040020DA
:08000000FFFFFFFFFFFFFFFF00
:020000040030CA
:0E000000FF011F1FFF8385FF0FC00FE00F40A1
:00000001FF
